:040000004FEF00F0CE
:100008005C82D9CF01F0DACF02F00E01CDAB0FEF51
:1000180000F011EF00F049EF00F0CD9B99CF03F00D
:10002800200E03601AEF00F01CEF00F035EF00F02F
:100038000001E851D8B423EF00F025EF00F03FEFBE
:1000480000F02C0EE825D96EDA6A010EDA22000ECD
:10005800DF6E010E0101266F000E0001E86F3FEF11
:1000680000F02C0E0001E825D96EDA6A010EDA22BA
:1000780003C0DFFFE82B270EE86545EF00F047EFE8
:1000880000F049EF00F0000EE86F02C0DAFF01C08F
:0A009800D9FF5C9211000AEFADF0F1
:10FEF000005253594E207620312E30300A00636173
:10FF00006C6962726174696F6E20617272617920CE
:10FF100073617665640A006763633A20256420256F
:10FF2000312E33660A006763643A20256420253148
:10FF30002E33660A007363633A2025642025312E30
:10FF400036660A007372723A2025642025312E36F7
:10FF5000660A002530372E3366206B4F686D0A0025
:10FF60002530372E3466206B4F686D0A0067727635
:10FF70003A2025312E33660A00494E46494E4954EF
:10FF80005900696E66696E697479006772723A2009
:10FF900025640A007372723A2025640A00642536CB
:10FFA0002E366C640A006572726F720A00676364B1
:10FFB0003A0A00776D633A20007225640A00494EC0
:10FFC00046004E414E00696E66006E616E002573FC
:10FFD0000A006763630073636300776D63006763A0
:10FFE000640069646E0067727200737272006772F7
:10FFF0007600737276006C64006C66006C690000B9
:020000040001F9
:100000002B502C10D8B407EF80F009EF80F015EFDB
:1000100080F02BC0D9FF2CC0DAFF29C0DEFF2AC038
:10002000DDFF15EF80F0294A2A2A010E436E29C010
:10003000D9FF2AC0DAFF200EDE18D8B422EF80F0F4
:1000400025EF80F0010E26EF80F0000E486E496A21
:1000500048504910D8A42FEF80F031EF80F053EFD3
:1000600080F0F70E2D6EFF0E2E6E29C0D9FF2AC02C
:10007000DAFFDF502F6E2F50486E496A48C030F0CB
:1000800049C031F02D5030262E503122315009E137
:10009000050E305CD8A04FEF80F051EF80F053EFA9
:1000A00080F0000E436E43C033F0346A3350341096
:1000B000D8A45DEF80F05FEF80F013EF80F0000ECA
:1000C000456E2D0E48184910D8A469EF80F06BEFEB
:1000D00080F071EF80F0010E456E294A2A2A7DEFEB
:1000E00080F02B0E48184910D8A479EF80F07BEFF0
:1000F00080F07DEF80F06DEF80F0000E4E6E82EFAD
:1001000080F04E2A4E502924D96E000E2A20DA6E35
:10011000DF50D8B48EEF80F090EF80F0C6EF80F023
:100120004E502924D96E000E2A20DA6EDF502D6E33
:10013000820E4E24F66EF76AFF0EF722F86A000E62
:10014000F8220800F5502D18D8B4A9EF80F0ABEFD5
:1001500080F081EF80F04E502924D96E000E2A20C5
:10016000DA6EDF502D6E790E4E24F66EF76AFF0EB2
:10017000F722F86A000EF8220800F5502D18D8B4BE
:10018000C4EF80F0C6EF80F081EF80F0020E4E6485
:10019000CCEF80F0CEEF80F0FAEF80F0000E4A6EE8
:1001A000000E4B6E800E4C6E7F0E4D6E2B502C1041
:1001B000D8B4DDEF80F0DFEF80F095EF88F0080E27
:1001C0004E18D8B4E6EF80F0E8EF80F0EAEF80F068
:1001D000030E4E6E4E5029242D6E000E2A202E6ED8
:1001E0002BC0D9FF2CC0DAFF2DC0DEFF2EC0DDFFF3
:1001F00095EF88F0000E4E6EFFEF80F04E2A4E50C5
:100200002924D96E000E2A20DA6EDF50D8B40BEF05
:1002100081F00DEF81F043EF81F04E502924D96E2B
:10022000000E2A20DA6EDF502D6ECA0E4E24F66EB6
:10023000F76AFF0EF722F86A000EF8220800F55060
:100240002D18D8B426EF81F028EF81F0FEEF80F072
:100250004E502924D96E000E2A20DA6EDF502D6E02
:10026000C20E4E24F66EF76AFF0EF722F86A000EF1
:10027000F8220800F5502D18D8B441EF81F043EF73
:1002800081F0FEEF80F0030E4E18D8A44AEF81F003
:100290004CEF81F0BAEF81F0B20E046EFF0E056EE6
:1002A000AEECB0F004C04AF005C04BF006C04CF014
:1002B00007C04DF02B502C10D8B461EF81F063EFE4
:1002C00081F095EF88F04E502926000E2A2229C091
:1002D000D9FF2AC0DAFF280EDE18D8A472EF81F009
:1002E00074EF81F0B0EF81F0000E4E6E79EF81F087
:1002F0004E2A4E502924D96E000E2A20DA6EDF5085
:10030000D8B485EF81F087EF81F096EF81F04E5001
:100310002924D96E000E2A20DA6E290EDE18D8A400
:1003200094EF81F096EF81F078EF81F04E50292420
:10033000D96E000E2A20DA6E290EDE18D8A4A3EF9B
:1003400081F0A5EF81F0B0EF81F04E502D6E2E6A56
:10035000010E2D26000E2E222D5029262E502A2247
:100360002BC0D9FF2CC0DAFF29C0DEFF2AC0DDFF79
:1003700095EF88F0000E496E000E486E000E4A6E32
:10038000000E4B6E000E4C6E000E4D6E000E476E52
:10039000000E466E000E4E6ECFEF81F04E2A4E508C
:1003A0002924D96E000E2A20DA6E300EDE18D8B459
:1003B000DCEF81F0DEEF81F0CEEF81F04E50D8B46B
:1003C000E4EF81F0E6EF81F07DEF85F04E502924D7
:1003D000D96E000E2A20DA6E780EDE18D8B4F3EF4C
:1003E00081F0F5EF81F004EF82F04E502924D96EB0
:1003F000000E2A20DA6E580EDE18D8A402EF82F022
:1004000004EF82F07DEF85F04E502D6E2E6A010EC6
:100410002D26000E2E222D5029262E502A22000E87
:100420004E6E14EF82F04E2A4E502924D96E000EE3
:100430002A20DA6E300EDE18D8B421EF82F023EFD6
:1004400082F013EF82F0000E4E6E4E502924D96ECA
:10045000000E2A20DA6E700EDE18D8B432EF82F069
:1004600034EF82F0C0EF83F04E502924D96E000E95
:100470002A20DA6E500EDE18D8A441EF82F043EF46
:1004800082F045EF82F0C0EF83F04E502924D96E00
:10049000000E2A20DA6E2E0EDE18D8A452EF82F05B
:1004A00054EF82F058EF82F045884E2AC0EF83F077
:1004B0004E502924D96E000E2A20DA6EDF502D6EA0
:1004C0002D50046E056A47ECADF004500510D8B409
:1004D0006CEF82F06EEF82F0E9EF82F0000E446E76
:1004E000D00E2D6EFF0E2E6E4E502924D96E000EAA
:1004F0002A20DA6EDF502F6E306A2D502F262E50B4
:10050000302230500AE10A0E2F5CD8A08AEF82F028
:100510008DEF82F0010E8EEF82F0000E356E366A9E
:1005200035503610D8B497EF82F099EF82F0A4EFEF
:1005300082F04E502924D96E000E2A20DA6EDF5048
:10054000D00F446EB4EF82F04E502924D96E000EC5
:100550002A20DA6EDF502D6E2D500A6E0B6A17ECD2
:10056000AEF00A50C90F446E49BEC2EF82F0495046
:1005700007E1080E485CD8B0C0EF82F0C2EF82F00D
:10058000E1EF82F0485007082D6ED8902D36D890B4
:100590002D3644C02EF02F6A306A316A2D2AD6EFEC
:1005A00082F0D8902E362F36303631362D2ED1EFC0
:1005B00082F02E504A122F504B1230504C123150B4
:1005C0004D12484A492A040E4626000E4722F3EFF0
:1005D00082F0000E296E000E2A6E000E2B6E000EA9
:1005E0002C6EB6EF88F04E2A25EF82F04E5029246B
:1005F000D96E000E2A20DA6E700EDE18D8B403EF22
:1006000083F005EF83F0C7EF83F04E502924D96EB5
:10061000000E2A20DA6E500EDE18D8A412EF83F0F6
:1006200014EF83F016EF83F0C7EF83F04E502924C8
:10063000D96E000E2A20DA6E300EDE18D8A423EF11
:1006400083F025EF83F034EF83F048504910D8A4AD
:100650002CEF83F02EEF83F034EF83F0FC0E462670
:10066000FF0E4722BFEF83F04E502924D96E000EB3
:100670002A20DA6EDF502D6E2D50046E056A47EC8D
:10068000ADF004500510D8B448EF83F04AEF83F082
:10069000BFEF83F0000E446ED00E2D6EFF0E2E6E57
:1006A0004E502924D96E000E2A20DA6EDF502F6EAC
:1006B000306A2D502F262E50302230500AE10A0E7B
:1006C0002F5CD8A066EF83F069EF83F0010E6AEF2C
:1006D00083F0000E376E386A37503810D8B473EF95
:1006E00083F075EF83F080EF83F04E502924D96EAC
:1006F000000E2A20DA6EDF50D00F446E90EF83F0A8
:100700004E502924D96E000E2A20DA6EDF502D6E4D
:100710002D500A6E0B6A17ECAEF00A50C90F446EEA
:1007200049BE9EEF83F0495007E1080E485CD8B0FF
:100730009CEF83F09EEF83F0BDEF83F048500708F5
:100740002D6ED8902D36D8902D3644C02EF02F6ABD
:10075000306A316A2D2AB2EF83F0D8902E362F36C8
:10076000303631362D2EADEF83F02E504A122F50F9
:100770004B1230504C1231504D12484A492A4E2AE1
:1007800045B8C5EF83F0C7EF83F0F6EF82F04E5027
:100790002924D96E000E2A20DA6E700EDE18D8B425
:1007A000D4EF83F0D6EF83F0EFEF83F04E5029249F
:1007B000D96E000E2A20DA6E500EDE18D8B4E3EFA0
:1007C00083F0E5EF83F0EFEF83F0000E296E000E6B
:1007D0002A6E000E2B6E000E2C6EB6EF88F04E2A9D
:1007E0004E502924D96E000E2A20DA6E2B0EDE1808
:1007F000D8A4FDEF83F0FFEF83F002EF84F04E2AE0
:1008000013EF84F04E502924D96E000E2A20DA6EA0
:100810002D0EDE18D8A40FEF84F011EF84F013EF43
:1008200084F045864E2A4E502926000E2A22000EBC
:100830004E6E1CEF84F04E2A4E502924D96E000EC5
:100840002A20DA6E300EDE18D8B429EF84F02BEFB0
:1008500084F01BEF84F0000E496E000E486E5DEFD1
:1008600084F04E50D8B437EF84F039EF84F047EF7E
:1008700084F048C004F049C005F0000E076E0A0E6F
:10088000066E9BECB0F004C048F005C049F0D00EF5
:100890002D6EFF0E2E6E4E502924D96E000E2A208A
:1008A000DA6EDF502F6E306A2D502F262E503022F8
:1008B0002F504826305049224E2AD00E2D6EFF0E62
:1008C0002E6E4E502924D96E000E2A20DA6EDF508B
:1008D0002F6E306A2D502F262E50302230500AE1D4
:1008E0000A0E2F5CD8A077EF84F07AEF84F0010E27
:1008F0007BEF84F0000E396E3A6A39503A10D8A472
:1009000084EF84F086EF84F031EF84F04E50D8A469
:100910008CEF84F08EEF84F098EF84F0000E296E57
:10092000000E2A6E000E2B6E000E2C6EB6EF88F0B5
:1009300045A69DEF84F09FEF84F0A3EF84F0486C10
:10094000491ED8B0492A48504626495047222B50C4
:100950002C10D8B4AEEF84F0B0EF84F0BEEF84F08A
:100960004E5029242D6E000E2A202E6E2BC0D9FF4A
:100970002CC0DAFF2DC0DEFF2EC0DDFF4A504B1029
:100980004C104D10D8A4C7EF84F0C9EF84F0D3EF1A
:1009900084F0000E296E000E2A6E000E2B6E000EE3
:1009A0002C6EB6EF88F0FF0E4A142D6E000E4B141D
:1009B0002E6E000E4C142F6E000E4D14306E305003
:1009C0002F102E1009E1810E2D5CD8A0EAEF84F0E3
:1009D000ECEF84F0FEEF84F0000E4A26010E4B226D
:1009E000000E4C22000E4D22FEEF84F0D8904A36C5
:1009F0004B364C364D364606D8A047064DAE03EF73
:100A000085F005EF85F0F6EF84F047AE11EF85F045
:100A1000830E465CFF0E4758D8B011EF85F013EFF8
:100A200085F01FEF85F0FF0E476E810E466E000EBB
:100A30004A6E000E4B6E000E4C6E000E4D6E810E17
:100A4000461808E14728D8B428EF85F02AEF85F04A
:100A500032EF85F0D8904A364B364C364D36460646
:100A6000D8A0470647BE3EEF85F0475009E1800E0B
:100A7000465CD8A03EEF85F040EF85F04CEF85F066
:100A8000000E4A6E000E4B6E000E4C6E000E4D6E48
:100A9000000E476E800E466E090E2D6ED8904D32B8
:100AA0004C324B324A322D2E4EEF85F0FF0E4A1655
:100AB000FF0E4B167F0E4C16000E4D167F0E462471
:100AC0002D6E000E47202E6EFF0E2D142F6E306AF5
:100AD000316A326A170ED8902F36303631363236B8
:100AE000E82E6BEF85F02F504A1230504B123150E8
:100AF0004C1232504D1295EF88F045B882EF85F0D8
:100B000084EF85F096EF85F029C0D9FF2AC0DAFF7F
:100B10002E0EDE18D8A48FEF85F091EF85F096EFBA
:100B200085F04588294A2A2A7DEF85F0D00E2D6E62
:100B3000FF0E2E6E29C0D9FF2AC0DAFFDF502F6EBC
:100B4000306A2D502F262E50302230500AE10A0EE6
:100B50002F5CD8A0AEEF85F0B1EF85F0010EB2EFBB
:100B600085F0000E3B6E3C6A3B503C10D8A4BBEFB6
:100B700085F0BDEF85F0BFEF85F00DEF86F0458283
:100B8000090E48184910D8B4C8EF85F0CAEF85F0AF
:100B900000EF86F045A8CFEF85F0D1EF85F0D4EFD8
:100BA00085F04606D8A04706484A492A4AC004F0BC
:100BB0004BC005F04CC006F04DC007F00A0E086EA1
:100BC000000E096E000E0A6E000E0B6E7FECADF08B
:100BD00004C04AF005C04BF006C04CF007C04DF011
:100BE00029C0D9FF2AC0DAFFDF502D6ED00E2D2686
:100BF0002D504A26000E4B224C224D2209EF86F042
:100C000045B805EF86F007EF86F009EF86F0464A13
:100C1000472A294A2A2A7DEF85F0000E496E000EE8
:100C2000486E29C0D9FF2AC0DAFF650EDE18D8B495
:100C30001CEF86F01EEF86F02BEF86F029C0D9FF5F
:100C40002AC0DAFF450EDE18D8A429EF86F02BEF74
:100C500086F01AEF87F0294A2A2A29C0D9FF2AC02C
:100C6000DAFF2D0EDE18D8A438EF86F03AEF86F0C2
:100C70003FEF86F04586294A2A2A4EEF86F029C0A2
:100C8000D9FF2AC0DAFF2B0EDE18D8A44AEF86F06F
:100C90004CEF86F04EEF86F0294A2A2A29C0D9FF68
:100CA0002AC0DAFF300EDE18D8B459EF86F05BEFB9
:100CB00086F04CEF86F0D00E2D6EFF0E2E6E29C002
:100CC000D9FF2AC0DAFFDF502F6E306A2D502F2651
:100CD0002E50302230500AE10A0E2F5CD8A073EF5C
:100CE00086F076EF86F0010E77EF86F0000E3D6E0F
:100CF0003E6A3D503E10D8B480EF86F082EF86F019
:100D00000FEF87F029C0D9FF2AC0DAFFDF502D6E20
:100D1000D00E2D262D50486E496A294A2A2AD00E17
:100D20002D6EFF0E2E6E29C0D9FF2AC0DAFFDF50CC
:100D30002F6E306A2D502F262E50302230500AE16F
:100D40000A0E2F5CD8A0A7EF86F0AAEF86F0010E5E
:100D5000ABEF86F0000E3F6E406A3F504010D8B4B3
:100D6000B4EF86F0B6EF86F00FEF87F029C0D9FF19
:100D70002AC0DAFFDF502D6ED00E2D2648C004F0B9
:100D800049C005F0000E076E0A0E066E9BECB0F02F
:100D90002D500424486E000E0520496E294A2A2A47
:100DA000D00E2D6EFF0E2E6E29C0D9FF2AC0DAFF9D
:100DB000DF502F6E306A2D502F262E5030223050AB
:100DC0000AE10A0E2F5CD8A0E8EF86F0EBEF86F080
:100DD000010EECEF86F0000E416E426A4150421067
:100DE000D8B4F5EF86F0F7EF86F00FEF87F029C063
:100DF000D9FF2AC0DAFFDF502D6ED00E2D2648C055
:100E000004F049C005F0000E076E0A0E066E9BEC5A
:100E1000B0F02D500424486E000E0520496E45A602
:100E200014EF87F016EF87F01AEF87F0486C491E31
:100E3000D8B0492A48504626495047222B502C10FA
:100E4000D8B425EF87F027EF87F036EF87F045A27B
:100E50002CEF87F02EEF87F036EF87F02BC0D9FF0D
:100E60002CC0DAFF29C0DEFF2AC0DDFF4AC004F033
:100E70004BC005F04CC006F04DC007F0000E9CECD6
:100E8000A4F004C04AF005C04BF006C04CF007C007
:100E90004DF04AC004F04BC005F04CC006F04DC008
:100EA00007F0000E086E000E096E000E0A6E000EAE
:100EB0000B6EB5ECACF0D8A060EF87F062EF87F076
:100EC0006CEF87F0000E296E000E2A6E000E2B6E5E
:100ED000000E2C6EB6EF88F047BE73EF87F071EF0F
:100EE00087F001EF88F0466C471ED8B0472A97EF8D
:100EF00087F04AC004F04BC005F04CC006F04DC06E
:100F000007F0F90E086E020E096E150E0A6E500EED
:100F10000B6E79EC9FF004C04AF005C04BF006C0A0
:100F20004CF007C04DF0F60E4626FF0E472247BE96
:100F3000A5EF87F0475007E10A0E465CD8B0A3EF53
:100F400087F0A5EF87F079EF87F0C4EF87F04AC00C
:100F500004F04BC005F04CC006F04DC007F0000E89
:100F6000086E000E096E200E0A6E410E0B6E79ECB3
:100F70009FF004C04AF005C04BF006C04CF007C01B
:100F80004DF04606D8A0470646504710D8A4CBEFF0
:100F900087F0CDEF87F0A7EF87F04AC01DF04BC078
:100FA0001EF04CC01FF04DC020F0000E216E000E50
:100FB000226E800E236E000E246EC1ECA9F0D8B014
:100FC000E4EF87F0E6EF87F095EF88F045A0EBEFD0
:100FD00087F0EDEF87F0F7EF87F0000E296E000E37
:100FE0002A6E800E2B6E800E2C6EB6EF88F0000EEF
:100FF000296E000E2A6E800E2B6E000E2C6EB6EF40
:1010000088F047BE0CEF88F0475008E14604D8A0AE
:101010000CEF88F00EEF88F095EF88F02EEF88F057
:101020004AC004F04BC005F04CC006F04DC007F0BC
:10103000F90E086E020E096E150E0A6E500E0B6E3A
:1010400064EC9DF004C04AF005C04BF006C04CF0C3
:1010500007C04DF0F60E4626FF0E4722475007E127
:101060000A0E465CD8B037EF88F039EF88F010EF01
:1010700088F058EF88F04AC004F04BC005F04CC02F
:1010800006F04DC007F0000E086E000E096E200E2F
:101090000A6E410E0B6E64EC9DF004C04AF005C070
:1010A0004BF006C04CF007C04DF04606D8A04706EE
:1010B00046504710D8A45FEF88F061EF88F03BEF0F
:1010C00088F0FF0E1D6EFF0E1E6E7F0E1F6E7F0ED0
:1010D000206E4AC021F04BC022F04CC023F04DC01E
:1010E00024F0C1ECA9F0D8B078EF88F07AEF88F05E
:1010F00095EF88F045A07FEF88F081EF88F08BEFC7
:1011000088F0000E296E000E2A6E800E2B6E800E67
:101110002C6EB6EF88F0000E296E000E2A6E800E3F
:101120002B6E000E2C6EB6EF88F045A09AEF88F07B
:101130009CEF88F0AEEF88F04AC004F04BC005F099
:101140004CC006F04DC007F01AECB0F004C04AF0F5
:1011500005C04BF006C04CF007C04DF04AC029F066
:101160004BC02AF04CC02BF04DC02CF01200000EEA
:1011700000017B6F000E7A6F37C08CF038C08DF0A5
:1011800039C08EF03AC08FF08FBFCBEF88F0C9EF37
:1011900088F0E1EF88F0000E7B6F010E7A6F8CC053
:1011A00004F08DC005F08EC006F08FC007F01AEC79
:1011B000B0F004C08CF005C08DF006C08EF007C002
:1011C0008FF0000E0001936F000E926FE5C07EF06D
:1011D000E6C07FF07A517B11D8A4F1EF88F0F3EFED
:1011E00088F0FAEF88F05AA4F8EF88F0FAEF88F068
:1011F00014EF89F07A517B11D8A401EF89F003EF45
:1012000089F009EF89F0000E616F2B0E606F0DEF12
:1012100089F0000E616F2D0E606F60C000F2924B7E
:10122000932B7E07D8A07F078CC004F08DC005F0FB
:101230008EC006F08FC007F043ECAAF0040405103E
:10124000D8A425EF89F027EF89F07EEF89F0BF0E53
:101250003C6EFF0E3D6E3B503E6E3F6A3C503E265C
:101260003D503F223F500AE11A0E3E5CD8A03BEFB2
:1012700089F03EEF89F0010E3FEF89F0000E00018A
:10128000626F636B62516311D8B449EF89F04BEF21
:1012900089F059EF89F0000E9225046E020E932119
:1012A000056EBE0E066EFF0E076E46ECAEF065EFE5
:1012B00089F0000E9225046E020E9321056EC60E73
:1012C000066EFF0E076E46ECAEF00001FD0E7E27A7
:1012D000FF0E7F2335C014F036C015F0000E166ED9
:1012E000020E176E7EC018F07FC019F0FCECABF058
:1012F00014C035F015C036F0E3EF8EF08CC004F06A
:101300008DC005F08EC006F08FC007F043ECAAF048
:1013100004500510D8A48FEF89F091EF89F0D1EF38
:1013200089F0BF0E3C6EFF0E3D6E3B503E6E3F6A35
:101330003C503E263D503F223F500AE11A0E3E5C93
:10134000D8A0A5EF89F0A8EF89F0010EA9EF89F0E8
:10135000000E0001646F656B64516511D8B4B3EF82
:1013600089F0B5EF89F0C3EF89F0000E9225046E85
:10137000020E9321056EC20E066EFF0E076E46EC3E
:10138000AEF065EF89F0000E9225046E020E9321F7
:10139000056ECA0E066EFF0E076E46ECAEF065EFE8
:1013A00089F0000E0001946F000E956F800E966F0D
:1013B0003F0E976F000E916F000E906F8CC004F07F
:1013C0008DC005F08EC006F08FC007F0000E086ECD
:1013D000000E096E000E0A6E000E0B6EB5ECACF03E
:1013E000D8B0F5EF89F0F7EF89F07AEF8AF016EFD1
:1013F0008AF094C004F095C005F096C006F097C03E
:1014000007F0000E086E000E096E200E0A6E410EE7
:101410000B6E64EC9DF004C094F005C095F006C01E
:1014200096F007C097F00001904B912B8CC01DF0F7
:101430008DC01EF08EC01FF08FC020F0000E086E11
:10144000000E096E200E0A6E410E0B6E94C004F061
:1014500095C005F096C006F097C007F064EC9DF0CB
:1014600004C021F005C022F006C023F007C024F01C
:10147000C1ECA9F0D8B03FEF8AF041EF8AF0F9EF64
:1014800089F061EF8AF094C004F095C005F096C031
:1014900006F097C007F0000E086E000E096E200ED1
:1014A0000A6E410E0B6E79EC9FF004C094F005C0FB
:1014B00095F006C096F007C097F000019007D8A0FD
:1014C00091078CC01DF08DC01EF08EC01FF08FC024
:1014D00020F094C021F095C022F096C023F097C070
:1014E00024F0C1ECA9F0D8A078EF8AF07AEF8AF066
:1014F00043EF8AF03BC00AF00B6AE7ECADF00A500C
:101500000001816F81C080F0670E8119D8A48BEF34
:101510008AF08DEF8AF0B3EF8AF058505910D8A4B2
:1015200094EF8AF096EF8AF09AEF8AF0000E596EE7
:10153000010E586E59BEA7EF8AF0595006E15804C3
:10154000D8B0A5EF8AF0A7EF8AF0ADEF8AF0000ED1
:101550007D6F060E7C6FBCEF8AF058C07CF059C0DE
:101560007DF0BCEF8AF059BEB8EF8AF0BAEF8AF08E
:10157000A7EF8AF0ADEF8AF0670E8119D8A4C3EF08
:101580008AF0C5EF8AF0F4EF8AF091AFD3EF8AF0DA
:10159000FC0E905DFF0E9159D8A0D1EF8AF0D3EFE9
:1015A0008AF0F2EF8AF0FF0E3C6EFF0E3D6E7CC0BB
:1015B0003EF07DC03FF03C503E263D503F229051D2
:1015C0003E5C3F50800A406E9151800A4058D8A03E
:1015D000ECEF8AF0EEEF8AF0F2EF8AF0660E806FA1
:1015E000F4EF8AF0650E806F7CC072F07DC073F0FE
:1015F000670E8119D8A4FFEF8AF001EF8BF011EF8D
:101600008BF0660E8019D8A408EF8BF00AEF8BF0F0
:1016100013EF8BF091BF11EF8BF00FEF8BF013EF07
:101620008BF0724B732B660E8019D8A41AEF8BF0D7
:101630001CEF8BF03CEF8BF091BF23EF8BF021EF91
:101640008BF02FEF8BF0000E946F000E956F800ED5
:10165000966F3F0E976F000E916F000E906F670EA2
:101660008119D8B436EF8BF038EF8BF03CEF8BF06C
:101670009051722791517323000E8B6F000E8A6F69
:101680008CC082F08DC083F08EC084F08FC085F056
:1016900094C074F095C075F096C076F097C077F05E
:1016A000CDEF8BF082C004F083C005F084C006F05B
:1016B00085C007F094C008F095C009F096C00AF004
:1016C00097C00BF079EC9FF004C01DF005C01EF030
:1016D00006C01FF007C020F0B5ECA2F01DC086F0D8
:1016E0001EC087F01FC088F020C089F086C004F0BB
:1016F00087C005F088C006F089C007F03EECA9F06D
:1017000004C078F005C079F082C02DF083C02EF0BF
:1017100084C02FF085C030F094C008F095C009F067
:1017200096C00AF097C00BF086C004F087C005F0A1
:1017300088C006F089C007F064EC9DF004C031F069
:1017400005C032F006C033F007C034F03EECAFF015
:101750002DC082F02EC083F02FC084F030C085F001
:1017600094C004F095C005F096C006F097C007F04D
:10177000000E086E000E096E200E0A6E410E0B6EF2
:1017800079EC9FF004C094F005C095F006C096F087
:1017900007C097F000018A4B8B2B72518A5D8B51E9
:1017A000800A3C6E7351800A3C58D8A0DAEF8BF067
:1017B000DCEF8BF052EF8BF094C004F095C005F095
:1017C00096C006F097C007F0000E086E000E096E76
:1017D000A00E0A6E400E0B6E64EC9DF004C086F005
:1017E00005C087F006C088F007C089F082C01DF0F0
:1017F00083C01EF084C01FF085C020F086C021F099
:1018000087C022F088C023F089C024F0C1ECA9F081
:10181000D8B00DEF8CF00FEF8CF01AEF8CF0000EBB
:101820000001866F000E876F000E886F000E896FB3
:1018300043EF8CF082C004F083C005F084C006F052
:1018400085C007F086C008F087C009F088C00AF09C
:1018500089C00BF0B5ECACF0D8A031EF8CF033EFD1
:101860008CF043EF8CF0000178B139EF8CF03BEF56
:101870008CF043EF8CF0000E866F000E876F000E29
:10188000886F000E896F8CC01DF08DC01EF08EC059
:101890001FF08FC020F086C021F087C022F088C0E2
:1018A00023F089C024F0DCEC98F01DC082F01EC04B
:1018B00083F01FC084F020C085F082C01DF083C07B
:1018C0001EF084C01FF085C020F0000E086E000ED0
:1018D000096E200E0A6E410E0B6E74C004F075C0C6
:1018E00005F076C006F077C007F064EC9DF004C008
:1018F00021F005C022F006C023F007C024F0C1EC9F
:10190000A9F0D8A086EF8CF088EF8CF0B1EF8CF0C6
:101910000001904B912B74C004F075C005F076C0A7
:1019200006F077C007F0000E086E000E096E200E5C
:101930000A6E410E0B6E64EC9DF004C074F005C09D
:1019400075F006C076F007C077F0660E00018019CA
:10195000D8A4ADEF8CF0AFEF8CF0B1EF8CF0724B00
:10196000732B74C094F075C095F076C096F077C074
:1019700097F0650E00018019D8B4C1EF8CF0C3EF69
:101980008CF0C9EF8CF090C070F091C071F0CDEF89
:101990008CF0000E716F000E706F000E6F6F000EF6
:1019A0006E6F000E6D6F000E6C6F000E8B6F000E71
:1019B0008A6FC9EF8DF082C004F083C005F084C047
:1019C00006F085C007F094C008F095C009F096C0F5
:1019D0000AF097C00BF079EC9FF004C01DF005C031
:1019E0001EF006C01FF007C020F0B5ECA2F01DC02D
:1019F00086F01EC087F01FC088F020C089F086C026
:101A000004F087C005F088C006F089C007F03EECFE
:101A1000A9F004C078F005C079F05AB812EF8DF043
:101A200014EF8DF032EF8DF0000178517911D8A4C8
:101A30001CEF8DF01EEF8DF032EF8DF0670E8119E7
:101A4000D8A425EF8DF027EF8DF032EF8DF071BF28
:101A50002EEF8DF02CEF8DF032EF8DF06C4B6D2B67
:101A60007DEF8DF000016E516F11D8A43AEF8DF02B
:101A70003CEF8DF066EF8DF071BF43EF8DF041EFDD
:101A80008DF066EF8DF0000E9225D96E020E932137
:101A9000DA6E2E0EDF6E924B932B7E07D8A07F0757
:101AA000000E6F6F010E6E6F66EF8DF0000E9225C7
:101AB000D96E020E9321DA6E300EDF6E924B932BAD
:101AC0007E07D8A07F076C07D8A06D076C516D11F9
:101AD000D8A46DEF8DF06FEF8DF056EF8DF0000E06
:101AE0009225D96E020E9321DA6E7851300FDF6E97
:101AF000924B932B7E07D8A07F0782C02DF083C026
:101B00002EF084C02FF085C030F094C008F095C04E
:101B100009F096C00AF097C00BF086C004F087C0A9
:101B200005F088C006F089C007F064EC9DF004C0A1
:101B300031F005C032F006C033F007C034F03EEC9F
:101B4000AFF02DC082F02EC083F02FC084F030C0E3
:101B500085F094C004F095C005F096C006F097C0DB
:101B600007F0000E086E000E096E200E0A6E410E80
:101B70000B6E79EC9FF004C094F005C095F006C0A0
:101B800096F007C097F000017007D8A071078A4B44
:101B90008B2B72518A5D8B51800A3C6E7351800A87
:101BA0003C58D8B0D6EF8DF0D8EF8DF0E6EF8DF041
:101BB00093BFE4EF8DF0935109E14B0E925DD8A0F5
:101BC000E4EF8DF0E6EF8DF0DBEF8CF06E516F11EE
:101BD000D8A4EDEF8DF0EFEF8DF000EF8EF05AA866
:101BE000F4EF8DF0F6EF8DF000EF8EF0000E922501
:101BF000D96E020E9321DA6E2E0EDF6E924B932B6E
:101C0000000E9225D96E020E9321DA6E000EDF6E61
:101C1000650E8019D8A40FEF8EF011EF8EF06AEFE9
:101C200089F0000E8B6F4F0E8A6F000E8A25D96ED9
:101C3000020E8B21DA6E000EDF6E000E7B6F000E3F
:101C40007A6F91BF28EF8EF026EF8EF030EF8EF096
:101C5000000E7B6F010E7A6F906D911FD8B0912BA3
:101C6000000E7D6F020E7C6F61EF8EF08A07D8A0A8
:101C70008B07000E8A25D96E020E8B21DA6E90C07A
:101C800004F091C005F0000E076E0A0E066E5DECC2
:101C9000ACF00450300FDF6E90C004F091C005F03E
:101CA000000E076E0A0E066E9AECABF004C090F0C0
:101CB00005C091F000017C07D8A07D077E07D8A061
:101CC0007F0790519111D8A468EF8EF06AEF8EF0E3
:101CD00036EF8EF07DBF77EF8EF07D5106E17C050B
:101CE000D8B075EF8EF077EF8EF036EF8EF08A0772
:101CF000D8A08B077A517B11D8A481EF8EF083EFA7
:101D00008EF089EF8EF0000E676F2B0E666F8DEFF1
:101D10008EF0000E676F2D0E666F000E8A25D96E4D
:101D2000020E8B21DA6E66C0DFFF7E07D8A07F0728
:101D30008A07D8A08B07BF0E3C6EFF0E3D6E3B504E
:101D40003E6E3F6A3C503E263D503F223F500AE1E6
:101D50001A0E3E5CD8A0AFEF8EF0B2EF8EF0010EFF
:101D6000B3EF8EF0000E6A6F6B6B6A516B11D8A4E3
:101D7000BCEF8EF0BEEF8EF0C4EF8EF0000E696FF8
:101D8000650E686FC8EF8EF0000E696F450E686FC4
:101D9000000E8A25D96E020E8B21DA6E68C0DFFF35
:101DA0007E07D8A07F07000E9225046E020E9321B5
:101DB000056E000E8A25066E020E8B21076E46EC1C
:101DC000AEF06AEF89F0120045C0D9FF46C0DAFFD5
:101DD000DECFF6FFDDCFF7FF000EF86E0800F550FE
:101DE000250AD8A4F6EF8EF0F8EF8EF016EF93F0F8
:101DF00045C0D9FF46C0DAFFDE2A000EDD22000E04
:101E00000001E66F000EE56FE5C05AF0E6C05BF03A
:101E100058685968000E9B6F000E9A6F58EF8FF04C
:101E20005A8045C0D9FF46C0DAFFDE2A000EDD2207
:101E300058EF8FF05A8211EF8FF05A8411EF8FF024
:101E40005A8611EF8FF05A8811EF8FF0000E9B6FBA
:101E5000010E9A6F58EF8FF045C0D9FF46C0DAFFE8
:101E6000DECFF6FFDDCFF7FF000EF86E0800F5506D
:101E7000496E4A6A4A50000AD8B441EF8FF026EF03
:101E80008FF04950200AD8B420EF8FF0030AD8B45D
:101E900023EF8FF0080AD8B41DEF8FF0060AD8B4EC
:101EA00010EF8FF01D0AD8B41AEF8FF026EF8FF0E5
:101EB0009A519B11D8B45FEF8FF061EF8FF02CEF48
:101EC0008FF05AA066EF8FF068EF8FF069EF8FF018
:101ED0005A9245C0D9FF46C0DAFFDECFF6FFDDCF0C
:101EE000F7FF000EF86E0800F5502A0AD8A47BEF21
:101EF0008FF07DEF8FF0A6EF8FF045C0D9FF46C081
:101F0000DAFFDE2A000EDD2247C0D9FF48C0DAFF23
:101F1000DFCF49F0020EDE26DFCF4AF0000EDD22D1
:101F200049C0D9FF4AC0DAFFDECFE5F0DDCFE6F0E9
:101F3000E6BF9FEF8FF09DEF8FF0ECEF8FF05A80B0
:101F4000E56DE61FD8B0E62BECEF8FF045C0D9FF6A
:101F500046C0DAFFDECF0BF0DDCF0CF076ECA5F05B
:101F60000BC0E5F00CC0E6F0BDEF8FF045C0D9FF27
:101F700046C0DAFFDE2A000EDD22D00E496EFF0ECB
:101F80004A6E45C0D9FF46C0DAFFDECFF6FFDDCF8F
:101F9000F7FF000EF86E0800F5504B6E4C6A495082
:101FA0004B264A504C224C500AE10A0E4B5CD8A0FA
:101FB000DCEF8FF0DFEF8FF0010EE0EF8FF0000E1F
:101FC00000019C6F9D6B9C519D11D8A4EAEF8FF08E
:101FD000ECEF8FF0B6EF8FF045C0D9FF46C0DAFFC7
:101FE000DECFF6FFDDCFF7FF000EF86E0800F550EC
:101FF0002E0AD8A4FEEF8FF000EF90F082EF90F061
:10200000000E596E000E586E45C0D9FF46C0DAFF6B
:10201000DE2A000EDD2245C0D9FF46C0DAFFDECF42
:10202000F6FFDDCFF7FF000EF86E0800F5502A0A24
:10203000D8A41DEF90F01FEF90F03CEF90F045C05A
:10204000D9FF46C0DAFFDE2A000EDD2247C0D9FFE5
:1020500048C0DAFFDFCF49F0020EDE26DFCF4AF0BC
:10206000000EDD2249C0D9FF4AC0DAFFDECF58F0AA
:10207000DDCF59F082EF90F045C0D9FF46C0DAFFBE
:10208000DECF0BF0DDCF0CF076ECA5F00BC058F0F6
:102090000CC059F053EF90F045C0D9FF46C0DAFFAD
:1020A000DE2A000EDD22D00E496EFF0E4A6E45C0BC
:1020B000D9FF46C0DAFFDECFF6FFDDCFF7FF000E17
:1020C000F86E0800F5504B6E4C6A49504B264A504A
:1020D0004C224C500AE10A0E4B5CD8A072EF90F0F3
:1020E00075EF90F0010E76EF90F0000E00019E6FFC
:1020F0009F6B9E519F11D8A480EF90F082EF90F0DB
:102100004CEF90F045C0D9FF46C0DAFFDECFF6FFB6
:10211000DDCFF7FF000EF86E0800F5500A6E0B6A6F
:10212000E7ECADF00A500001AE6FAE51D8B49BEFB2
:1021300090F09DEF90F0DBEF90F045C0D9FF46C0E6
:10214000DAFFDECF49F0DDCF4AF0010E4926000E5E
:102150004A2249C0F6FF4AC0F7FF000EF86E080099
:10216000F5500A6E0B6AE7ECADF00A500001AF6F54
:10217000AF51D8B4BEEF90F0C0EF90F0DBEF90F02D
:1021800045C0D9FF46C0DAFFDECF49F0DDCF4AF0C7
:10219000020E4926000E4A2249C0F6FF4AC0F7FF48
:1021A000000EF86E0800F5500A6E0B6AE7ECADF011
:1021B0000A500001B06F45C0D9FF46C0DAFFDECF3C
:1021C000F6FFDDCFF7FF000EF86E0800F550640A49
:1021D000D8B4EDEF90F0EFEF90F003EF91F045C041
:1021E000D9FF46C0DAFFDECFF6FFDDCFF7FF000EE6
:1021F000F86E0800F550690AD8A401EF91F003EFDA
:1022000091F043EF91F045C0D9FF46C0DAFFDE2AD6
:10221000000EDD2247C0D9FF48C0DAFFDFCF49F00A
:10222000020EDE26DFCF4AF0000EDD2249C0D9FFC4
:102230004AC0DAFFDECFA2F0DDCFA3F0000EA3BFCD
:10224000FF0EA46FA56FA66FA76FA86FA96F43C0FD
:102250001FF044C020F0A2C021F0A3C022F0A4C00F
:1022600023F0A5C024F0A6C025F0A7C026F0A8C082
:1022700027F0A9C028F046ECA1F01FC043F020C011
:1022800044F033EF93F045C0D9FF46C0DAFFDECF0C
:1022900004F0DDCF05F0F60E066EFF0E076E000EA1
:1022A000096E020E086ED9ECA7F004500510D8B4E0
:1022B0005CEF91F05EEF91F079EF91F045C0D9FFBE
:1022C00046C0DAFFDECF04F0DDCF05F0FC0E066E6F
:1022D000FF0E076E000E096E020E086ED9ECA7F015
:1022E00004500510D8A477EF91F079EF91F0BCEF8E
:1022F00091F0020E45C0D9FF46C0DAFFDE26000E7F
:10230000DD2247C0D9FF48C0DAFFDFCF49F0040E15
:10231000DE26DFCF4AF0000EDD2249C0D9FF4AC0D9
:10232000DAFFDECF4BF0DECF4CF0DECF4DF0DECF6C
:102330004EF04BC04FF04CC050F04DC051F04EC06D
:1023400052F0536A52BE536853C054F053C055F014
:1023500053C056F04FC0A2F050C0A3F051C0A4F03B
:1023600052C0A5F053C0A6F054C0A7F055C0A8F0C5
:1023700056C0A9F027EF91F0660E0001AE19D8A45F
:10238000C4EF91F0C6EF91F008EF92F045C0D9FF8D
:1023900046C0DAFFDECFF6FFDDCFF7FF000EF86EA6
:1023A0000800F5CFB1F045C0D9FF46C0DAFFDE2AFC
:1023B000000EDD2247C0D9FF48C0DAFFDFCF49F069
:1023C000040EDE26DFCF4AF0000EDD2249C0D9FF21
:1023D0004AC0DAFFDECFAAF0DECFABF0DECFACF042
:1023E000DECFADF043C035F044C036F0AAC037F0C0
:1023F000ABC038F0ACC039F0ADC03AF0B1C03BF082
:10240000B7EC88F035C043F036C044F033EF93F0BA
:10241000AE0E046E000E056EF90E066EFF0E076E10
:10242000000E096E020E086ED9ECA7F004500510DC
:10243000D8A41DEF92F01FEF92F09FEF92F045C0ED
:10244000D9FF46C0DAFFDECF49F0DDCF4AF0010EFA
:102450004926000E4A2249C0F6FF4AC0F7FF000E87
:10246000F86E0800F5CFB1F0BF0E496EFF0E4A6E50
:1024700045C0D9FF46C0DAFFDECFF6FFDDCFF7FF5C
:10248000000EF86E0800F5504B6E4C6A49504B2612
:102490004A504C224C500AE11A0E4B5CD8A053EF24
:1024A00092F056EF92F0010E57EF92F0000E0001FD
:1024B000A06FA16BA051A111D8B461EF92F063EFAE
:1024C00092F07DEF92F047C0D9FF48C0DAFFDFCF2E
:1024D00049F0040EDE26DFCF4AF0000EDD2249C0AF
:1024E000D9FF4AC0DAFFDECFAAF0DECFABF0DECFF5
:1024F000ACF0DECFADF095EF92F047C0D9FF48C009
:10250000DAFFDFCF49F0040EDE26DFCF4AF0000EFF
:10251000DD2249C0D9FF4AC0DAFFDECFAAF0DECF04
:10252000ABF0DECFACF0DECFADF0020E45C0D9FF90
:1025300046C0DAFFDE26000EDD22F2EF91F045C044
:10254000D9FF46C0DAFFDECFF6FFDDCFF7FF000E82
:10255000F86E0800F550730AD8A4B1EF92F0B3EF0B
:1025600092F0DEEF92F045C0D9FF46C0DAFFDE2AD6
:10257000000EDD2247C0D9FF48C0DAFFDFCF49F0A7
:10258000020EDE26DFCF4AF0000EDD2249C0D9FF61
:102590004AC0DAFFDECF98F0DDCF99F043C00DF0EE
:1025A00044C00EF098C00FF099C010F048ECA6F0AF
:1025B0000DC043F00EC044F033EF93F045C0D9FF97
:1025C00046C0DAFFDECFF6FFDDCFF7FF000EF86E74
:1025D0000800F550250AD8A4F0EF92F0F2EF92F03F
:1025E00009EF93F045C0D9FF46C0DAFFDE2A000E9E
:1025F000DD22000E056E250E046E43C006F044C0B9
:1026000007F035ECABF0000E446E010E436E33EF75
:1026100093F045C0D9FF46C0DAFFDE2A000EDD2266
:10262000000E446E000E436E33EF93F045C0D9FFA9
:1026300046C0DAFFDECFF6FFDDCFF7FF000EF86E03
:102640000800F550046E056A43C006F044C007F068
:1026500035ECABF045C0D9FF46C0DAFFDE2A000EEC
:10266000DD2203EF93F0120001012605D8A43BEF11
:1026700093F03DEF93F010EF96F0000E266F780E7A
:102680000001BA6F010EBB6FA60EBC6FFF0EBD6FCF
:10269000A1ECAEF02C0E046E010E056EF3ECAEF064
:1026A00004C0BEF105C0BFF1000E0101C76F000EEE
:1026B000C66F75EF93F02C0E0101C625D96E010E81
:1026C000C721DA6E2C0EDE18D8A469EF93F06BEFF9
:1026D00093F073EF93F02C0EC625D96E010EC7212F
:1026E000DA6E2E0EDF6EC64BC72BBE51C65DC751CC
:1026F000800A0001CC6F0101BF51800A0001CC5952
:10270000D8A085EF93F087EF93F05BEF93F0E20EA4
:10271000046EFF0E056E2C0E066E010E076E000E87
:10272000096E030E086ED9ECA7F004500510D8A46A
:102730009CEF93F09EEF93F0ADEF93F0780E0001D5
:10274000BA6F010EBB6FCE0EBC6FFF0EBD6FF10EE8
:10275000BE6FFE0EBF6FA1ECAEF0D60E046EFF0E84
:10276000056E2C0E066E010E076E000E096E030E2E
:10277000086ED9ECA7F004500510D8A4C2EF93F06E
:10278000C4EF93F019EF94F0300E366E010E376EF1
:10279000C40E386E010E396E000E3B6E0A0E3A6E94
:1027A00052ECB0F036C0C8F137C0C9F1C4C129F04D
:1027B000C5C12AF0000E2B6E000E2C6E00EC80F0CE
:1027C00029C0C0F12AC0C1F12BC0C2F12CC0C3F195
:1027D000680E0001CC6F010ECD6FD8900101C83595
:1027E000D96EC935DA6ED890D936DA360001CC51B7
:1027F000D926CD51DA22C0C1DEFFC1C1DEFFC2C180
:10280000DEFFC3C1DEFF780EBA6F010EBB6F350E5F
:10281000BC6FFF0EBD6FC8C1BEF0C9C1BFF0C0C163
:10282000C0F0C1C1C1F0C2C1C2F0C3C1C3F0A1ECCC
:10283000AEF0D20E046EFF0E056E2C0E066E010E6B
:10284000076E000E096E030E086ED9ECA7F0045057
:102850000510D8A42EEF94F030EF94F06BEF94F0C5
:10286000300E366E010E376EC40E386E010E396EA4
:10287000000E3B6E0A0E3A6E52ECB0F036C0C8F154
:1028800037C0C9F1780E0001BA6F010EBB6F170E89
:10289000BC6FFF0EBD6FC8C1BEF0C9C1BFF0680EEE
:1028A000CC6F010ECD6FD8900101C835D96EC935F6
:1028B000DA6ED890D936DA360001CC51D926CD510E
:1028C000DA22DECFC0F0DECFC1F0DECFC2F0DECF45
:1028D000C3F0A1ECAEF0DE0E046EFF0E056E2C0E02
:1028E000066E010E076E000E096E030E086ED9EC1F
:1028F000A7F004500510D8A480EF94F082EF94F074
:10290000E9EF94F0780E0001BA6F010EBB6FAD0EC7
:10291000BC6FFF0EBD6FA1ECAEF0780E056E010E20
:10292000066E6BECB0F0000E0101C76F000EC66FB3
:10293000780E0001BA6F010EBB6F260EBC6FFF0E42
:10294000BD6FC6C1BEF0C7C1BFF0680ECC6F010E2F
:10295000CD6FD8900101C635D96EC735DA6ED890E3
:10296000D936DA360001CC51D926CD51DA22DECF64
:10297000C0F0DECFC1F0DECFC2F0DECFC3F0A1ECFD
:10298000AEF0780E056E010E066E6BECB0F0010134
:10299000C64BC72BC7BFD6EF94F0C75109E1040E51
:1029A000C65DD8A0D6EF94F0D8EF94F098EF94F0ED
:1029B000780E0001BA6F010EBB6FB10EBC6FFF0E37
:1029C000BD6FA1ECAEF0780E056E010E066E6BECDD
:1029D000B0F0DA0E046EFF0E056E2C0E066E010EC0
:1029E000076E000E096E030E086ED9ECA7F00450B6
:1029F0000510D8A4FEEF94F000EF95F022EF95F0CB
:102A0000780E0001BA6F010EBB6FB30EBC6FFF0EE4
:102A1000BD6FA1ECAEF0780E056E010E066E6BEC8C
:102A2000B0F0680E086E010E096E75ECAEF0780E0F
:102A30000001BA6F010EBB6FFE0EBC6FFE0EBD6FC4
:102A4000A1ECAEF0EE0E046EFF0E056E2C0E066EBF
:102A5000010E076E000E096E030E086ED9ECA7F08A
:102A600004500510D8A437EF95F039EF95F04CEFEE
:102A700095F0780E0001BA6F010EBB6F6D0EBC6F42
:102A8000FF0EBD6F1CC1BEF01DC1BFF01EC1C0F066
:102A90001FC1C1F0A1ECAEF0F20E046EFF0E056E88
:102AA0002C0E066E010E076E000E096E030E086EE8
:102AB000D9ECA7F004500510D8A461EF95F063EFAE
:102AC00095F094EF95F0300E296E010E2A6E000EEF
:102AD0002B6E000E2C6E00EC80F029C0C0F12AC0D5
:102AE000C1F12BC0C2F12CC0C3F1C0C11CF1C1C1E6
:102AF0001DF1C2C11EF1C3C11FF1780E0001BA6FF2
:102B0000010EBB6F440EBC6FFF0EBD6FC8C1BEF09F
:102B1000C9C1BFF0C0C1C0F0C1C1C1F0C2C1C2F0E3
:102B2000C3C1C3F0A1ECAEF0E60E046EFF0E056E5D
:102B30002C0E066E010E076E000E096E030E086E57
:102B4000D9ECA7F004500510D8A4A9EF95F0ABEF8D
:102B500095F0B9EF95F0780E0001BA6F010EBB6FDA
:102B60008B0EBC6FFF0EBD6F28C1BEF0BF6BA1EC1A
:102B7000AEF0EA0E046EFF0E056E2C0E066E010E10
:102B8000076E000E096E030E086ED9ECA7F0045014
:102B90000510D8A4CEEF95F0D0EF95F00AEF96F09F
:102BA000300E366E010E376EC40E386E010E396E61
:102BB000000E3B6E0A0E3A6E52ECB0F036C0C8F111
:102BC00037C0C9F10101C9BFF1EF95F0C95107E163
:102BD000020EC85DD8B0EFEF95F0F1EF95F0FCEF85
:102BE00095F0C9BFF6EF95F0F8EF95F0FCEF95F092
:102BF000C8C128F1FCEF95F0780E0001BA6F010E04
:102C0000BB6F940EBC6FFF0EBD6F28C1BEF0BF6BD3
:102C1000A1ECAEF0780E056E010E066E6BECB0F016
:102C20001200550E0E01A06FAA0EA06FA0910B0E00
:102C3000EF6F090EF36F0D0EB56F550EA06FAA0E54
:102C4000A06FA081200E9E6E900E9D6E670E9B6EF3
:102C5000200E9E6F900E9D6F670E9B6F0F0E8A6EFB
:102C6000000E0F01216F000E196F0E01CD9BC58B59
:102C7000F28CF28E889C838C000E83ECAFF0000EF9
:102C80000101286FCD0E046FCC0E056F4C0E066F40
:102C90003D0E076F000E006F000E016F200E026FD9
:102CA000410E036F000E086F000E096F200E0A6FB1
:102CB000410E0B6FCD0E106FCC0E116F4C0E126FBC
:102CC0003D0E136F000E0C6F000E0D6FAA0E0E6FEF
:102CD000420E0F6F000E146F000E156FC80E166FA8
:102CE000420E176F680E296E010E2A6EBEECA3F01D
:102CF000000E01011C6F000E1D6F800E1E6F3F0E37
:102D00001F6FEEECB0F001012B6F2B51D8B48BEF9D
:102D100096F08DEF96F08FEF96F01E0E276F2B51E9
:102D20002A192B152911296F2BC12AF1050E000133
:102D3000D46F0F0ED36FF10EE82EFED7D32FFCD732
:102D4000D42FFAD7010129A3A8EF96F0AAEF96F0A5
:102D5000D3EF96F029932BA1B0EF96F0B2EF96F057
:102D6000C2EF96F02851D8A4B8EF96F0BAEF96F0DB
:102D7000BEEF96F0010E286FD3EF96F0000E286F8D
:102D8000D3EF96F0255107E1050E245DD8B0CBEFC7
:102D900096F0CDEF96F0D3EF96F0010E2425246F38
:102DA000000E2521256F29A1D8EF96F0DAEF96F0D5
:102DB000EAEF96F0299124512511D8B4E2EF96F06C
:102DC000E4EF96F0EAEF96F0FF0E2425246FFF0E55
:102DD0002521256F29A5EFEF96F0F1EF96F06DEF25
:102DE00097F029951CC12DF01DC12EF01EC12FF0AA
:102DF0001FC130F0CA0E0001D36F010ED46FD890FE
:102E000001012435D96E2535DA6ED890D936DA36F7
:102E10000001D351D926D451DA22DECF08F0DECF1B
:102E200009F0DECF0AF0DECF0BF0010128510C0DC6
:102E3000080EF324D96E010EF420DA6EDECF04F012
:102E4000DECF05F0DECF06F0DECF07F064EC9DF0BC
:102E500004C031F005C032F006C033F007C034F0D2
:102E60003EECAFF02DC01CF12EC01DF12FC01EF1A5
:102E700030C01FF11CC11DF01DC11EF01EC11FF08E
:102E80001FC120F0010128510C0D040EF324D96E4E
:102E9000010EF420DA6EDECF21F0DECF22F0DECF9D
:102EA00023F0DECF24F0C1ECA9F0D8B05AEF97F0B0
:102EB0005CEF97F06DEF97F0010128510C0D040EB7
:102EC000F324D96E010EF420DA6EDECF1CF1DECFD2
:102ED0001DF1DECF1EF1DECF1FF1010129A773EF37
:102EE00097F075EF97F0F1EF97F02997CA0E000170
:102EF000D36F010ED46FD89001012435D96E2535DA
:102F0000DA6ED890D936DA360001D351D926D451A9
:102F1000DA22DECF08F0DECF09F0DECF0AF0DECF16
:102F20000BF0010128510C0D080EF324D96E010E8F
:102F3000F420DA6EDECF04F0DECF05F0DECF06F04F
:102F4000DECF07F064EC9DF004C01DF005C01EF05C
:102F500006C01FF007C020F01CC121F01DC122F0E7
:102F60001EC123F01FC124F0DCEC98F01DC01CF141
:102F70001EC01DF11FC01EF120C01FF1010128510C
:102F80000C0D000EF324D96E010EF420DA6EDECFA4
:102F90001DF0DECF1EF0DECF1FF0DECF20F01CC113
:102FA00021F01DC122F01EC123F01FC124F0C1EC8D
:102FB000A9F0D8B0DEEF97F0E0EF97F0F1EF97F0DF
:102FC000010128510C0D000EF324D96E010EF420DE
:102FD000DA6EDECF1CF1DECF1DF1DECF1EF1DECFCB
:102FE0001FF185BAF6EF97F0F9EF97F0010EFAEFBF
:102FF00097F0000EFF0A0001D36FD33BD3478550F3
:10300000D319DF0BD319856E01012751D8B40BEF0B
:1030100098F00DEF98F00EEF98F027071CC1CCF058
:103020001DC1CDF01EC1CEF01FC1CFF024C1D0F024
:1030300028C1D1F027C1D2F0C2ECAAF00101285179
:10304000080D680EF324D96E010EF420DA6EDECF7F
:103050001DF0DECF1EF0DECF1FF0DECF20F01CC152
:1030600021F01DC122F01EC123F01FC124F0DCECB1
:1030700098F01DC018F11EC019F11FC01AF120C030
:103080001BF101012851080D6C0EF324D96E010EBD
:10309000F420DA6EDECF04F0DECF05F0DECF06F0EE
:1030A000DECF07F018C108F019C109F01AC10AF003
:1030B0001BC10BF064EC9DF004C018F105C019F1C0
:1030C00006C01AF107C01BF118C104F019C105F0C0
:1030D0001AC106F01BC107F03EECA9F004C020F1B4
:1030E00005C021F106C022F107C023F1540E0001F2
:1030F000BA6F010EBB6F9D0EBC6FFF0EBD6F01015D
:103100002051FF080001BE6FFF0E01012155000193
:10311000BF6F030E010122550001C06F000E0101B7
:1031200023550001C16FA1ECAEF0010E83ECAFF0AE
:10313000150E0001D36FC60EE82EFED7D32FFCD795
:1031400000F0540E056E010E066E83ECB0F0680EB2
:103150000001D36FE40EE82EFED7D32FFCD700F08A
:10316000540E0001BA6F010EBB6FB90EBC6FFF0E9B
:10317000BD6F28C1BEF0BF6BA1ECAEF0150E000113
:10318000D36FC60EE82EFED7D32FFCD700F0540E17
:10319000056E010E066E83ECB0F0680E0001D36F71
:1031A000E40EE82EFED7D32FFCD700F034EC93F0DA
:1031B00081EF96F04FEF00F02050800B296E2050E9
:1031C00020242B6E1FAEE7EF98F0E9EF98F0EAEFBE
:1031D00098F02B802B50D8B4F0EF98F0F2EF98F0E5
:1031E00007EF99F02B28D8A4F8EF98F0FAEF98F0B1
:1031F00002EF99F0000E1D6E000E1E6E000E1F6E87
:10320000000E206E1F8E000E206E0FEF99F0000E44
:103210001D6E000E1E6E000E1F6E000E206E2450DE
:10322000800B2A6E29502A18D8B419EF99F01BEF99
:1032300099F01CEF99F0298C245024242A6E23AE97
:1032400024EF99F026EF99F027EF99F02A802A5081
:10325000D8B42DEF99F02FEF99F044EF99F02A2888
:10326000D8A435EF99F037EF99F03FEF99F0000EC1
:10327000216E000E226E000E236E000E246E238E31
:10328000000E246E4CEF99F0000E216E000E226E9F
:10329000000E236E000E246E2B502A5CD8B053EF24
:1032A00099F055EF99F07CEF99F029AC5AEF99F02D
:1032B0005CEF99F05EEF99F0800E291A2BC02CF08C
:1032C0002AC02BF02CC02AF01DC02CF021C01DF00C
:1032D0002CC021F01EC02CF022C01EF02CC022F009
:1032E0001FC02CF023C01FF02CC023F020C02CF0F6
:1032F00024C020F02CC024F0000E2C6E2B502AC0CD
:1033000025F0266A255E000E265A26BE91EF99F01A
:10331000265009E11A0E255CD8A091EF99F093EFA1
:1033200099F0CAEF99F01D501E101F102010D8A45C
:103330009CEF99F09FEF99F0010EA0EF99F0000E2D
:103340002C6E000E1D6E000E1E6E000E1F6E000E07
:10335000206E2AC02BF0D3EF99F02CA0B2EF99F099
:10336000B4EF99F0BAEF99F0D8902C3001092C6E97
:10337000BCEF99F0D8902C321DA0C1EF99F0C3EFAB
:1033800099F0C4EF99F02C8E203420321F321E3277
:103390001D322B2A2A502B5CD8A0D1EF99F0D3EF05
:1033A00099F0ADEF99F029BCD8EF99F0DAEF99F0E8
:1033B0001AEF9AF02B50D8A4E0EF99F0E2EF99F0D1
:1033C000ECEF99F0000E1D6E000E1E6E000E1F6ECB
:1033D000000E206E3BEF9BF021501D2622501E2236
:1033E00023501F222450202220A0F9EF99F0FBEF58
:1033F00099F0A7EF9AF02CA000EF9AF002EF9AF064
:1034000008EF9AF0D8902C3001092C6E0AEF9AF050
:10341000D8902C321DA00FEF9AF011EF9AF012EF16
:103420009AF02C8E203420321F321E321D322B2A6D
:10343000A7EF9AF021501D5C22501E5823501F58B0
:103440002050800A256E2450800A2558D8B02BEFD2
:103450009AF02DEF9AF058EF9AF01D50215C256EEE
:103460001E502258266E1F502358276E2050245875
:10347000286EFF0E25241D6EFF0E26201E6EFF0EE9
:1034800027201F6EFF0E2820206E800E291A2C6C1C
:103490002C50D8A44EEF9AF050EF9AF060EF9AF0CB
:1034A000010E1D26000E1E221F22202260EF9AF020
:1034B00021501D5E22501E5A23501F5A2450205A5C
:1034C0001D501E101F102010D8A469EF9AF06BEF4A
:1034D0009AF0A0EF9AF02C50D8A471EF9AF073EF05
:1034E0009AF0A0EF9AF0000E1D6E000E1E6E000EF8
:1034F0001F6E000E206E3BEF9BF0D8901D361E36DF
:103500001F3620362CAE87EF9AF089EF9AF08AEFBB
:103510009AF01D802CA08FEF9AF091EF9AF095EF22
:103520009AF0D8802C3697EF9AF0D8902C362B5002
:10353000D8B49DEF9AF09FEF9AF0A0EF9AF02B0687
:103540001FAEA5EF9AF0A7EF9AF07DEF9AF0000E6C
:103550002A6E2CAEAEEF9AF0B0EF9AF0C8EF9AF068
:103560002CC025F07F0E2516D8B4B9EF9AF0BBEF2A
:103570009AF0BFEF9AF0010E2A6EC8EF9AF01DA0E4
:10358000C4EF9AF0C6EF9AF0C8EF9AF0BBEF9AF04A
:103590002A50D8B4CEEF9AF0D0EF9AF0FBEF9AF021
:1035A000010E1D26000E1E221F22202220A0DBEF6E
:1035B0009AF0DDEF9AF0FBEF9AF01DC025F01EC0E7
:1035C00026F01FC027F020C028F0283428322732E8
:1035D0002632253225C01DF026C01EF027C01FF060
:1035E00028C020F02B28D8B4F8EF9AF0FAEF9AF020
:1035F000FBEF9AF02B2A2B28D8B401EF9BF003EFB6
:103600009BF00BEF9BF02B50D8A409EF9BF00BEF36
:103610009BF01DEF9BF0000E1D6E000E1E6E000E47
:103620001F6E000E206E2B50D8A419EF9BF01BEFDD
:103630009BF01DEF9BF0000E296E2BA022EF9BF05C
:1036400024EF9BF027EF9BF01F8E28EF9BF01F9E2F
:10365000D8902B30206E29AE30EF9BF032EF9BF0EC
:1036600033EF9BF0208E1DC01DF01EC01EF01FC04A
:103670001FF020C020F01200000E2F6E000E306EE2
:10368000000E316E000E326E12C033F013C034F0F3
:1036900033503410D8B44FEF9BF051EF9BF03EEF16
:1036A0009DF033C0D9FF34C0DAFFDF50D8A45BEF00
:1036B0009BF05DEF9BF05FEF9BF03EEF9DF033C022
:1036C000D9FF34C0DAFFDF50356E6FEF9BF0334A1D
:1036D000342A33C0D9FF34C0DAFFDF50356E010E13
:1036E000276E200E3518D8B478EF9BF07AEF9BF058
:1036F00092EF9BF0F70E196EFF0E1A6E35501B6E8F
:103700001C6A19501B261A501C221C5009E1050E78
:103710001B5CD8A08EEF9BF090EF9BF092EF9BF09C
:10372000000E276E27C021F0226A21502210D8A453
:103730009CEF9BF09EEF9BF067EF9BF0000E2D6ED1
:10374000000E286E000E2E6E2D0E3518D8A4ABEF8D
:103750009BF0ADEF9BF0B9EF9BF0010E2D6E334A5D
:10376000342A33C0D9FF34C0DAFFDF50356EC4EFDE
:103770009BF02B0E3518D8A4C0EF9BF0C2EF9BF046
:10378000C4EF9BF0AFEF9BF0300E3518D8A4CBEF11
:103790009BF0CDEF9BF017EF9CF0334A342A33C0F7
:1037A000D9FF34C0DAFFDF50356E16501710D8B489
:1037B000DCEF9BF0DEEF9BF0E8EF9BF0100E1618AD
:1037C0001710D8A4E6EF9BF0E8EF9BF008EF9CF011
:1037D000780E3518D8B4EFEF9BF0F1EF9BF0FAEFCD
:1037E0009BF0580E3518D8A4F8EF9BF0FAEF9BF039
:1037F00008EF9CF0000E176E100E166E334A342A36
:1038000033C0D9FF34C0DAFFDF50356E17EF9CF0BC
:10381000010E286E16501710D8A411EF9CF013EF6C
:103820009CF017EF9CF0000E176E080E166E1650E7
:103830001710D8A41EEF9CF020EF9CF024EF9CF012
:10384000000E176E0A0E166E1850D8B42AEF9CF0B0
:103850002CEF9CF048EF9CF02D50D8A432EF9CF058
:1038600034EF9CF03EEF9CF0FF0E296EFF0E2A6EA7
:10387000FF0E2B6E7F0E2C6E4CEF9CF0000E296E0F
:10388000000E2A6E000E2B6E800E2C6E4CEF9CF0FC
:1038900029682A682B682C682FC01DF030C01EF0E4
:1038A00031C01FF032C020F09F0E196EFF0E1A6E4D
:1038B00035501B6E1C6A200E1B12000E1C12195074
:1038C0001B261A501C221C500AE11A0E1B5CD8A0A1
:1038D0006CEF9CF06FEF9CF0010E70EF9CF0000E0F
:1038E000236E246A23502410D8B479EF9CF07BEF28
:1038F0009CF085EF9CF035C00AF00B6A17ECAEF037
:103900000A50C90F356EAAEF9CF0D00E196EFF0E4B
:103910001A6E35501B6E1C6A19501B261A501C2239
:103920001C500AE10A0E1B5CD8A099EF9CF09CEF9A
:103930009CF0010E9DEF9CF0000E256E266A25502E
:103940002610D8B4A6EF9CF0A8EF9CF026EF9DF0CF
:10395000300E355E3550196E1A6A1650195C1A50C1
:10396000800A1B6E1750800A1B58D8A0BAEF9CF033
:10397000BCEF9CF0BEEF9CF026EF9DF02E50D8A43B
:10398000C4EF9CF0C6EF9CF01AEF9DF016C004F057
:1039900017C005F0000E05BEFF0E066E076E2FC0A5
:1039A00008F030C009F031C00AF032C00BF07FECF3
:1039B000ADF0355004242F6E000E0520306E000E41
:1039C0000620316E000E0720326E1D502F5C1E50F7
:1039D00030581F50315820503258D8A0F2EF9CF088
:1039E000F4EF9CF00BEF9DF01850D8B4FAEF9CF078
:1039F000FCEF9CF01AEF9DF02F50295C30502A58B4
:103A000031502B5832502C58D8B009EF9DF00BEFA5
:103A10009DF01AEF9DF029C02FF02AC030F02BC086
:103A200031F02CC032F0000E0001E26F220EE16F87
:103A3000010E2E6E334A342A33C0D9FF34C0DAFF68
:103A4000DF50356E010E286E4CEF9CF02E50D8A43E
:103A50002CEF9DF02EEF9DF03EEF9DF02D50D8B451
:103A600034EF9DF036EF9DF03EEF9DF0321E311E9B
:103A7000301E2F6C000E30223122322214501510CD
:103A8000D8B445EF9DF047EF9DF05BEF9DF02850D7
:103A9000D8A44DEF9DF04FEF9DF053EF9DF012C075
:103AA00033F013C034F014C0D9FF15C0DAFF33C0AF
:103AB000DEFF34C0DDFF2FC012F030C013F031C084
:103AC00014F032C015F012000750800B106E075032
:103AD0000724166E06AE6FEF9DF071EF9DF072EF4A
:103AE0009DF016801650D8B478EF9DF07AEF9DF0D7
:103AF0008DEF9DF01628D8A480EF9DF082EF9DF009
:103B00008AEF9DF0000E046E000E056E000E066E2C
:103B1000000E076E068E95EF9DF0000E046E000EEF
:103B2000056E000E066E000E076E0B50800B101A0D
:103B30000B500B24116E0AAEA0EF9DF0A2EF9DF08A
:103B4000A3EF9DF011801150D8B4A9EF9DF0ABEF19
:103B50009DF0BEEF9DF01128D8A4B1EF9DF0B3EF1A
:103B60009DF0BBEF9DF0000E086E000E096E000E7A
:103B70000A6E000E0B6E0A8EC6EF9DF0000E086EE8
:103B8000000E096E000E0A6E000E0B6E1150D8B4B6
:103B9000CCEF9DF0CEEF9DF0D6EF9DF01650D8A45F
:103BA000D4EF9DF0D6EF9DF0E0EF9DF0000E046E97
:103BB000000E056E000E066E000E076E78EF9FF089
:103BC0000A500402F3CF1BF0F4CF1CF01B50126E0E
:103BD000136A146A156A1C50176E186A196A1A6AF1
:103BE00009500502F3CF1BF0F4CF1CF01B50122636
:103BF000000E1322142215221C501726000E182224
:103C000019221A2208500602F3CF1BF0F4CF1CF041
:103C10001B501226000E1322142215221C501726A8
:103C2000000E182219221A2214C015F013C014F025
:103C300012C013F0126A08500502F3CF1BF0F4CF44
:103C40001CF01B5012261C501322000E1422000ED2
:103C5000152209500402F3CF1BF0F4CF1CF01B50C7
:103C600012261C501322000E1422000E152214C01E
:103C700015F013C014F012C013F0126A08500402B9
:103C8000F3CF1BF0F4CF1CF01B5012261C50132254
:103C9000000E1422000E15220A500502F3CF1BF06D
:103CA000F4CF1CF01B5017261C501822000E1922AE
:103CB000000E1A2209500602F3CF1BF0F4CF1CF0BD
:103CC0001B5017261C501822000E1922000E1A2213
:103CD0000A500602F3CF1BF0F4CF1CF01B500C6E01
:103CE0001C500D6E0E6A0F6A0EC00FF00DC00EF064
:103CF0000CC00DF00C6A0C5017260D5018220E50F7
:103D000019220F501A2212C00CF013C00DF014C06B
:103D10000EF015C00FF0190E93EF9EF0D8900F32F1
:103D20000E320D320C32E82E8EEF9EF00C5017261C
:103D30000D5018220E5019220F501A2214C015F0DF
:103D400013C014F012C013F0126A115016C00CF018
:103D50000D6A0C26000E0D22820E0C241B6EFF0E27
:103D60000D201C6EC9EF9EF0D89017361836193604
:103D70001A3615AEBEEF9EF0C0EF9EF0C1EF9EF07A
:103D80001780D89012361336143615361B06D8A075
:103D90001C0619AECEEF9EF0D0EF9EF0B4EF9EF071
:103DA000000E116E15AED7EF9EF0D9EF9EF0FDEF2D
:103DB0009EF0FF0E12140C6EFF0E13140D6EFF0E0C
:103DC00014140E6E7F0E15140F6E0C500D100E1085
:103DD0000F10D8B4EEEF9EF0F0EF9EF0F4EF9EF0EF
:103DE000010E116EFDEF9EF017A0F9EF9EF0FBEFB4
:103DF0009EF0FDEF9EF0F0EF9EF01150D8B403EF6F
:103E00009FF005EF9FF029EF9FF0010E1726000E9F
:103E1000182219221A221AA010EF9FF012EF9FF019
:103E200029EF9FF017C00CF018C00DF019C00EF06C
:103E30001AC00FF00F340F320E320D320C320CC09C
:103E400017F00DC018F00EC019F00FC01AF01B4A81
:103E50001C2A1CBE34EF9FF01C5008E11B28D8A080
:103E600034EF9FF036EF9FF040EF9FF0000E176E9B
:103E7000000E186E800E196E7F0E1A6E6EEF9FF098
:103E80001CBE4DEF9FF01C5006E11B04D8B04BEF59
:103E90009FF04DEF9FF059EF9FF0000E176E000E50
:103EA000186E000E196E000E1A6E000E106E6EEF78
:103EB0009FF01BC016F0FF0E1716FF0E18167F0E90
:103EC0001916000E1A1616A068EF9FF06AEF9FF001
:103ED0006BEF9FF0198ED89016301A6E10501A1290
:103EE00017C004F018C005F019C006F01AC007F09A
:103EF00012000750800B146E075007241B6E06AE8D
:103F000084EF9FF086EF9FF087EF9FF01B801B50A0
:103F1000D8B48DEF9FF08FEF9FF0A4EF9FF01B2898
:103F2000D8A495EF9FF097EF9FF09FEF9FF0000EC2
:103F3000046E000E056E000E066E000E076E068EF5
:103F4000000E076EACEF9FF0000E046E000E056EC3
:103F5000000E066E000E076E0B50800B141A0B50ED
:103F60000B241C6E0AAEB7EF9FF0B9EF9FF0BAEFCB
:103F70009FF01C801C50D8B4C0EF9FF0C2EF9FF0A0
:103F8000D7EF9FF01C28D8A4C8EF9FF0CAEF9FF08E
:103F9000D2EF9FF0000E086E000E096E000E0A6E42
:103FA000000E0B6E0A8E000E0B6EDFEF9FF0000E00
:103FB000086E000E096E000E0A6E000E0B6E0850A1
:103FC00009100A100B10D8A4E8EF9FF0EAEF9FF059
:103FD00002EFA0F0000E046E000E056E000E066EDD
:103FE000000E076E800E06127F0E07121450071285
:103FF00004C004F005C005F006C006F007C007F0D5
:1040000045EFA1F01B50D8A408EFA0F00AEFA0F0F4
:1040100014EFA0F0000E046E000E056E000E066E8A
:10402000000E076E45EFA1F01C501BC00CF00D6A8E
:104030000C5E000E0D5A7F0E0C24156E000E0D2026
:10404000166E04C010F005C011F006C012F007C0D3
:1040500013F0000E046E000E056E000E066E000ECC
:10406000076E000E176E000E186E000E196E000E11
:104070001A6E000E1C6E75EFA0F01C50D8B443EF02
:10408000A0F045EFA0F05CEFA0F0D890103611360C
:1040900012361336D89004360536063607361AAE71
:1040A00054EFA0F056EFA0F057EFA0F00480D890A6
:1040B0001736183619361A360850105C0950115840
:1040C0000A5012580B501358D8A069EFA0F06BEFAC
:1040D000A0F074EFA0F01A8C0850105E0950115A2D
:1040E0000A50125A0B50135A1C2A190E1C647BEFEB
:1040F000A0F07DEFA0F03DEFA0F0105011101210D5
:104100001310D8B486EFA0F088EFA0F0A0EFA0F0D5
:104110001780A0EFA0F0D890043605360636073693
:104120001AAE95EFA0F097EFA0F098EFA0F0048002
:10413000D8901736183619361A361506D8A016062E
:1041400006AEA5EFA0F0A7EFA0F08BEFA0F0000E59
:104150001C6E1AAEAEEFA0F0B0EFA0F0D4EFA0F05E
:10416000FF0E17140C6EFF0E18140D6EFF0E1914AF
:104170000E6E7F0E1A140F6E0C500D100E100F10D5
:10418000D8B4C5EFA0F0C7EFA0F0CBEFA0F0010EC0
:104190001C6ED4EFA0F004A0D0EFA0F0D2EFA0F0FE
:1041A000D4EFA0F0C7EFA0F01C50D8B4DAEFA0F025
:1041B000DCEFA0F000EFA1F0010E0426000E0522B6
:1041C0000622072207A0E7EFA0F0E9EFA0F000EF3A
:1041D000A1F004C00CF005C00DF006C00EF007C041
:1041E0000FF00F340F320E320D320C320CC004F0CF
:1041F0000DC005F00EC006F00FC007F0154A162AD4
:1042000016BE0BEFA1F0165008E11528D8A00BEF51
:10421000A1F00DEFA1F018EFA1F0000E166E1568D9
:10422000000E046E000E056E000E066E000E076E88
:1042300016BE25EFA1F0165006E11504D8B023EF05
:10424000A1F025EFA1F033EFA1F0000E166E000EE5
:10425000156E000E046E000E056E000E066E000E4A
:10426000076E000E146E15C01BF01BA03AEFA1F0F4
:104270003CEFA1F03FEFA1F0068E40EFA1F0069ECB
:10428000D8901B30076EF6EF9FF0120021C039F076
:1042900022C03AF023C03BF024C03CF025C03DF0E2
:1042A00026C03EF027C03FF028C040F040BE5BEF84
:1042B000A1F05EEFA1F0010E5FEFA1F0000E376EEE
:1042C000386A37503810D8B468EFA1F06AEFA1F01F
:1042D0007AEFA1F0401E3F1E3E1E3D1E3C1E3B1EBF
:1042E0003A1E396C000E3A223B223C223D223E22ED
:1042F0003F22402259BE7FEFA1F081EFA1F082EF73
:10430000A1F05A9259BE8FEFA1F0595006E158041E
:10431000D8B08DEFA1F08FEFA1F095EFA1F0000ED6
:10432000346E010E336E99EFA1F058C033F059C0CE
:1043300034F0E5C035F0E6C036F037503810D8A478
:10434000A4EFA1F0A6EFA1F0ADEFA1F05AA4ABEF5E
:10435000A1F0ADEFA1F0B0EFA1F03506D8A0360680
:10436000000E426E4F0E416E000E02014F6F35EF90
:10437000A2F04106D8A04206000E4124D96E020EDA
:104380004220DA6E39C004F03AC005F03BC006F0B6
:104390003CC007F03DC008F03EC009F03FC00AF045
:1043A00040C00BF00A0E0C6E000E0D6E000E0E6E6D
:1043B000000E0F6E000E106E000E116E000E126ECB
:1043C000000E136E8CECA8F004C029F005C02AF092
:1043D00006C02BF007C02CF008C02DF009C02EF04D
:1043E0000AC02FF00BC030F029C016F02BC017F018
:1043F000A4ECAFF01650300FDF6E3306D8A03406B1
:104400003506D8A0360639C004F03AC005F03BC0E6
:1044100006F03CC007F03DC008F03EC009F03FC0C8
:104420000AF040C00BF00A0E0C6E000E0D6E000E6E
:104430000E6E000E0F6E000E106E000E116E000E4E
:10444000126E000E136E15ECA7F004C039F005C013
:104450003AF006C03BF007C03CF008C03DF009C090
:104460003EF00AC03FF00BC040F042BE40EFA2F069
:10447000425008E14104D8A040EFA2F042EFA2F080
:1044800072EFA2F039503A103B103C103D103E1034
:104490003F104010D8A44FEFA2F051EFA2F0B9EFB7
:1044A000A1F034BE5EEFA2F0345006E13304D8B080
:1044B0005CEFA2F05EEFA2F0B9EFA1F036BE69EFBB
:1044C000A2F0365008E13504D8A069EFA2F06BEFF6
:1044D000A2F072EFA2F05AB270EFA2F072EFA2F067
:1044E000B9EFA1F037503810D8A479EFA2F07BEFE4
:1044F000A2F082EFA2F05AA480EFA2F082EFA2F025
:10450000A0EFA2F04106D8A0420637503810D8A438
:104510008CEFA2F08EEFA2F094EFA2F0000E326EBC
:104520002B0E316E98EFA2F0000E326E2D0E316E12
:10453000000E4124D96E020E4220DA6E31C0DFFF38
:104540001FC014F020C015F0000E4124166E020E9C
:104550004220176E35C018F036C019F0FCECABF0F5
:1045600014C01FF015C020F01200D5C02DF0D6C029
:104570002EF0D7C02FF0D8C030F01DC02DF01EC0D7
:104580002EF01FC02FF020C030F0810E216EFF0EE4
:10459000226E2DC023F02EC024F02FC025F030C095
:1045A00026F0180ED9EFA2F0D89026322532243208
:1045B0002332E82ED4EFA2F0235021242B6E000EDC
:1045C00022202C6E2CBEEEEFA2F02C5009E1170E2B
:1045D0002B5CD8A0EEEFA2F0F0EFA2F0FAEFA2F081
:1045E0001DC01DF01EC01EF01FC01FF020C020F017
:1045F000BDEFA3F02CBEFFEFA2F001EFA3F071EF2F
:10460000A3F02BC021F0FF0E226EFF0E236E7F0E53
:10461000246E000E256E216610EFA3F018EFA3F0B4
:1046200025342532243223322232212E0BEFA3F0FF
:1046300022C027F023C028F024C029F025C02AF08A
:1046400027502D14216E28502E14226E29502F141D
:10465000236E2A503014246E21502210231024106F
:10466000D8A435EFA3F037EFA3F039EFA3F0F0EFC4
:10467000A2F02DC021F02EC022F02FC023F030C0B8
:1046800024F0200E49EFA3F0D890243223322232B6
:104690002132E82E44EFA3F02150221023102410E1
:1046A000D8B455EFA3F057EFA3F05FEFA3F0275076
:1046B0002D2628502E2229502F222A503022271C06
:1046C000216E281C226E291C236E2A1C246E215068
:1046D0002D1622502E1623502F1624503016B5EFCB
:1046E000A3F02DC021F02EC022F02FC023F030C047
:1046F00024F0200E81EFA3F0D8902432233222320E
:104700002132E82E7CEFA3F0215022102310241038
:10471000D8A48DEFA3F08FEFA3F099EFA3F0000ED4
:104720002D6E000E2E6E000E2F6E000E306EB5EF49
:10473000A3F0D8902D34216E2E34226E2F34236EA8
:104740003034246E2150221023102410D8B4ABEF43
:10475000A3F0ADEFA3F0B5EFA3F0000E2D6E000EA9
:104760002E6E800E2F6EBF0E306E2DC01DF02EC02F
:104770001EF02FC01FF030C020F0120029C02BF017
:104780002AC02CF0000E2E6E000E2F6E0F0E2F641E
:10479000CCEFA3F0CEEFA3F0D0EFA3F0E8EFA3F0BF
:1047A0002EC004F0056AE1ECB0F02D6E2E2A2BC06D
:1047B000D9FF2CC0DAFF2DC0DFFF2B4A2C2A2F2A6D
:1047C0000F0E2F64E6EFA3F0E8EFA3F0D0EFA3F015
:1047D000000E2F6E010E2F64F0EFA3F0F2EFA3F0A6
:1047E000F4EFA3F09BEFA4F0000E1D6E240E1E6EDE
:1047F000740E1F6E490E206E2F50080D6C0EF324A0
:10480000D96E010EF420DA6EDECF21F0DECF22F079
:10481000DECF23F0DECF24F0C1ECA9F0D8A013EF57
:10482000A4F015EFA4F036EFA4F02F50080D6C0E95
:10483000F324D96E010EF420DA6EDECF1DF0DECF48
:104840001EF0DECF1FF0DECF20F0000E216E240E12
:10485000226E740E236EC90E246EC1ECA9F0D8B07E
:1048600034EFA4F036EFA4F046EFA4F02F50080D7B
:104870006C0EF324D96E010EF420DA6E000EDE6E9B
:10488000E40EDE6E400EDE6E460EDD6E000E1D6E18
:10489000000E1E6E200E1F6E410E206E2F50080D52
:1048A000680EF324D96E010EF420DA6EDECF21F00B
:1048B000DECF22F0DECF23F0DECF24F0C1ECA9F072
:1048C000D8A065EFA4F067EFA4F088EFA4F02F5014
:1048D000080D680EF324D96E010EF420DA6EDECFD7
:1048E0001DF0DECF1EF0DECF1FF0DECF20F0000E79
:1048F000216E000E226E200E236EC10E246EC1ECBE
:10490000A9F0D8B086EFA4F088EFA4F098EFA4F057
:104910002F50080D680EF324D96E010EF420DA6EC4
:10492000000EDE6E000EDE6E000EDE6E000EDD6E20
:104930002F2AEAEFA3F012000C6E0C50D8B4A3EFAC
:10494000A4F0A5EFA4F0C7EFA4F007BEACEFA4F06D
:10495000AAEFA4F0C7EFA4F004C008F005C009F066
:1049600006C00AF007C00BF0081E091E0A1E0B1E27
:10497000082A000E09220A220B2208C00EF009C0E4
:104980000FF00AC010F00BC011F0CFEFA4F004C07C
:104990000EF005C00FF006C010F007C011F0045073
:1049A000051006100710D8A4D8EFA4F0DAEFA4F091
:1049B000E4EFA4F0000E046E000E056E000E066E0D
:1049C000000E076E75EFA5F0960E0D6EEEEFA4F0DB
:1049D0000D2AD890113210320F320E32000E0E1402
:1049E000086E000E0F14096E000E10140A6EFE0EF3
:1049F00011140B6E085009100A100B10D8A403EF05
:104A0000A5F005EFA5F0E8EFA4F013EFA5F00D2A4F
:104A1000010E0E26000E0F2210221122D890113204
:104A200010320F320E32000E0E14086E000E0F14EC
:104A3000096E000E10140A6EFF0E11140B6E085052
:104A400009100A100B10D8A428EFA5F02AEFA5F042
:104A500007EFA5F032EFA5F00D06D8900E360F3611
:104A60001036113610BE37EFA5F039EFA5F041EF43
:104A7000A5F0020E0D603FEFA5F041EFA5F02CEF81
:104A8000A5F00DB046EFA5F048EFA5F049EFA5F071
:104A9000109ED8900D320DC008F0096A0A6A0B6AA0
:104AA00008C00BF00A6A096A086A08500E12095019
:104AB0000F120A5010120B5011120C50D8B463EFA1
:104AC000A5F065EFA5F06DEFA5F007BE6CEFA5F0C2
:104AD0006AEFA5F06DEFA5F0118E0EC004F00FC0C7
:104AE00005F010C006F011C007F01200000E196E9C
:104AF000000E186E000E126E000E116E82EFA5F001
:104B00000B4A0C2A010E176E0BC0F6FF0CC0F7FF04
:104B1000000EF86E0800F550200AD8B492EFA5F008
:104B200094EFA5F0B3EFA5F0F70E0D6EFF0E0E6E2D
:104B30000BC0F6FF0CC0F7FF000EF86E0800F55032
:104B40000F6E106A0D500F260E501022105009E102
:104B5000050E0F5CD8A0AFEFA5F0B1EFA5F0B3EF55
:104B6000A5F0000E176E17C013F0146A135014103E
:104B7000D8A4BDEFA5F0BFEFA5F080EFA5F0C9EF79
:104B8000A5F0000E126E010E116E0B4A0C2A02EFF8
:104B9000A6F00BC0F6FF0CC0F7FF000EF86E080081
:104BA000F5500D6E0E6A0E50000AD8B4DAEFA5F07B
:104BB00002EFA6F00D502B0AD8B4C5EFA5F0060AF7
:104BC000D8B4C1EFA5F002EFA6F018C004F019C0E8
:104BD00005F0000E076E0A0E066E9BECB0F00BC0DF
:104BE000F6FF0CC0F7FF000EF86E0800F550045EEB
:104BF000000E055A300E0424186E000E0520196EA2
:104C0000C5EFA5F0D00E0D6EFF0E0E6E0BC0F6FFB9
:104C10000CC0F7FF000EF86E0800F5500F6E106A1A
:104C20000D500F260E50102210500AE10A0E0F5C94
:104C3000D8A01DEFA6F020EFA6F0010E21EFA6F000
:104C4000000E156E166A15501610D8A42AEFA6F09D
:104C50002CEFA6F0E5EFA5F011501210D8A433EF19
:104C6000A6F035EFA6F043EFA6F018C00DF019C07E
:104C70000EF00D1E0E1E0D4A0E2A0DC00BF00EC0BA
:104C80000CF047EFA6F018C00BF019C00CF01200A2
:104C900020EEEAF010EE12F0060EDBCFE3FFE8069E
:104CA000FCE20FC01DF010C01EF01D501E10D8A455
:104CB0005CEFA6F05EEFA6F062EFA6F0120E1D6E9E
:104CC000000E1E6E1DC004F01EC005F0F3ECAEF029
:104CD00004C021F005C022F058C01FF059C020F0D8
:104CE00020BE75EFA6F077EFA6F08CEFA6F021506E
:104CF0001F5C2050800A116E2250800A1158D8A0E3
:104D000084EFA6F086EFA6F088EFA6F08CEFA6F071
:104D10001FC021F020C022F021C01FF022C020F0CF
:104D2000E5C01BF0E6C01CF05AB099EFA6F09BEF6F
:104D3000A6F0B8EFA6F0A9EFA6F0000E056E200EC3
:104D4000046E0DC006F00EC007F035ECABF0214A42
:104D5000222A1B50215C2250800A116E1C50800AAE
:104D60001158D8A0B6EFA6F0B8EFA6F09DEFA6F0C8
:104D7000000E1A6E000E196EDDEFA6F01DC0F6FFD4
:104D80001EC0F7FF000EF86E0E0EF76403D0080089
:104D9000F55005D0F6CFE1FFF7CFE2FFE750116EF7
:104DA0001150046E056A0DC006F00EC007F035EC18
:104DB000ABF01D4A1E2A194A1A2A1F50195C1A50B4
:104DC000800A116E2050800A1158D8A0EAEFA6F090
:104DD000ECEFA6F0BEEFA6F05AA0F1EFA6F0F3EFCD
:104DE000A6F010EFA7F001EFA7F0000E056E200E61
:104DF000046E0DC006F00EC007F035ECABF0214A92
:104E0000222A1B50215C2250800A116E1C50800AFD
:104E10001158D8A00EEFA7F010EFA7F0F5EFA6F00D
:104E200021C00DF022C00EF01200000E156E13BE50
:104E30001EEFA7F01CEFA7F030EFA7F0131E121E15
:104E4000111E101E0F1E0E1E0D1E0C6C000E0D22CC
:104E50000E220F221022112212221322010E156E91
:104E60000BBE37EFA7F035EFA7F049EFA7F00B1E09
:104E70000A1E091E081E071E061E051E046C000ED3
:104E8000052206220722082209220A220B22010EED
:104E9000151A20EE16F0070EDE6AE806FDE20C5049
:104EA0000D100E100F101010111012101310D8B496
:104EB0005CEFA7F05EEFA7F0B0EFA7F0010E146E65
:104EC0006CEFA7F0D8900C360D360E360F36103634
:104ED000113612361336142A13AE71EFA7F073EFA2
:104EE000A7F062EFA7F0D8901636173618361936A5
:104EF0001A361B361C361D360C50045C0D500558F6
:104F00000E5006580F5007581050085811500958A5
:104F100012500A5813500B58D8A091EFA7F093EFF6
:104F2000A7F0A4EFA7F00C50045E0D50055A0E50E8
:104F3000065A0F50075A1050085A1150095A125069
:104F40000A5A13500B5A1680D8901332123211326B
:104F500010320F320E320D320C32142E73EFA7F0D6
:104F60001550D8B4B6EFA7F0B8EFA7F0C8EFA7F088
:104F70001D1E1C1E1B1E1A1E191E181E171E166C27
:104F8000000E1722182219221A221B221C221D226F
:104F900016C004F017C005F018C006F019C007F0DD
:104FA0001AC008F01BC009F01CC00AF01DC00BF0AD
:104FB000120004C00CF005C00DF006C00EF007C0D2
:104FC0000FF00806D8A00906082806E10928D8A489
:104FD000ECEFA7F0EEEFA7F0FBEFA7F0000E056EE9
:104FE000000E046E8BEFA8F00C4A0D2A0E4A0F2A11
:104FF0000806D8A009060CC0F6FF0DC0F7FF000E8A
:10500000F86E0E0EF76403D00800F55005D0F6CF09
:10501000E1FFF7CFE2FFE7500009D8B412EFA8F0A4
:1050200014EFA8F061EFA8F00EC0F6FF0FC0F7FF75
:10503000000EF86E0E0EF76403D00800F55005D090
:10504000F6CFE1FFF7CFE2FFE7500009D8B42BEF2E
:10505000A8F02DEFA8F061EFA8F008500910D8B41F
:1050600034EFA8F036EFA8F061EFA8F00EC0F6FF1D
:105070000FC0F7FF000EF86E0E0EF76403D00800A5
:10508000F55005D0F6CFE1FFF7CFE2FFE7500A6E0B
:105090000CC0F6FF0DC0F7FF000EF86E0E0EF764A1
:1050A00003D00800F55005D0F6CFE1FFF7CFE2FFBF
:1050B000E7500A18D8B45FEFA8F061EFA8F0F4EF5A
:1050C000A7F00CC0F6FF0DC0F7FF000EF86E0E0E35
:1050D000F76403D00800F55005D0F6CFE1FFF7CF15
:1050E000E2FFE7500A6E0EC0F6FF0FC0F7FF000E9A
:1050F000F86E0E0EF76403D00800F55005D0F6CF19
:10510000E1FFF7CFE2FFE7500B6E0B500A5C046E35
:10511000056AD8A005061200000E156E0BBE95EFAD
:10512000A8F093EFA8F0A7EFA8F00B1E0A1E091E27
:10513000081E071E061E051E046C000E0522062210
:105140000722082209220A220B22010E156E13BE25
:10515000AEEFA8F0ACEFA8F0BEEFA8F0131E121E41
:10516000111E101E0F1E0E1E0D1E0C6C000E0D22A9
:105170000E220F2210221122122213220C500D1087
:105180000E100F101010111012101310D8B4CBEF16
:10519000A8F0CDEFA8F015EFA9F0010E146EDBEF2B
:1051A000A8F0D8900C360D360E360F361036113664
:1051B00012361336142A13AEE0EFA8F0E2EFA8F08F
:1051C000D1EFA8F00C50045C0D5005580E50065855
:1051D0000F500758105008581150095812500A58CB
:1051E00013500B58D8A0F7EFA8F0F9EFA8F009EF8B
:1051F000A9F00C50045E0D50055A0E50065A0F507F
:10520000075A1050085A1150095A12500A5A13508E
:105210000B5AD89013321232113210320F320E3232
:105220000D320C32142EE2EFA8F01550D8B41BEF5B
:10523000A9F01DEFA9F02DEFA9F00B1E0A1E091E03
:10524000081E071E061E051E046C000E05220622FF
:105250000722082209220A220B2204C004F005C0FA
:1052600005F006C006F007C007F008C008F009C046
:1052700009F00AC00AF00BC00BF012000634073424
:105280000D6E0D50D8A447EFA9F049EFA9F053EFE8
:10529000A9F0000E046E000E056E000E066E000EE4
:1052A000076EC0EFA9F004C008F005C009F006C001
:1052B0000AF007C00BF0200E63EFA9F0D8900B3274
:1052C0000A3209320832E82E5EEFA9F008500C6E5F
:1052D000068EFF0E0416FF0E0516FF0E0616000EB4
:1052E0000716960E0D5E0DBE7AEFA9F078EFA9F0C5
:1052F00090EFA9F00D50800A970FD8B082EFA9F077
:1053000084EFA9F086EFA9F049EFA9F0D890073211
:105310000632053204320D3E86EFA9F0A8EFA9F05F
:105320001F0E0D6496EFA9F098EFA9F0A0EFA9F079
:1053300049EFA9F0D89004360536063607360D0633
:105340000D50D8A4A6EFA9F0A8EFA9F09AEFA9F004
:105350000C50D8B4AEEFA9F0B0EFA9F0B8EFA9F0B7
:10536000071E061E051E046C000E052206220722DB
:1053700004C004F005C005F006C006F007C007F041
:105380001200000E1D14256E000E1E14266E800ED7
:105390001F14276E7F0E2014286E2550261027100C
:1053A0002810D8A4D6EFA9F0D8EFA9F0E0EFA9F023
:1053B000000E1D6E000E1E6E000E1F6E000E206E83
:1053C000000E2114256E000E2214266E800E23146A
:1053D000276E7F0E2414286E2550261027102810C3
:1053E000D8A4F5EFA9F0F7EFA9F0FFEFA9F0000EB0
:1053F000216E000E226E000E236E000E246E20AE73
:1054000004EFAAF006EFAAF00FEFAAF01D6C1E1E23
:10541000D8B01E2A1F1ED8B01F2A800E205624AED8
:1054200014EFAAF016EFAAF01FEFAAF0216C221ECB
:10543000D8B0222A231ED8B0232A800E2456000E6C
:105440001D1A000E1E1A000E1F1A800E201A000EC2
:10545000211A000E221A000E231A800E241A21503F
:105460001D5C22501E5823501F5824502058D8B07D
:105470003CEFAAF03EEFAAF041EFAAF0D89042EF3D
:10548000AAF0D8801200D9C00EF0DAC00FF0DBC04D
:1054900010F0DCC011F004C00EF005C00FF006C023
:1054A00010F007C011F00EC008F00FC009F010C0D6
:1054B0000AF011C00BF0180E63EFAAF0D8900B326F
:1054C0000A3209320832E82E5EEFAAF008500C6E5C
:1054D0000D6A0C500D10D8A470EFAAF072EFAAF06C
:1054E00092EFAAF0D8900E34086E0F34096E103483
:1054F0000A6E11340B6E085009100A100B10D8A454
:1055000084EFAAF086EFAAF08CEFAAF0000E056EE9
:10551000020E046EC1EFAAF0000E056E030E046EBB
:10552000C1EFAAF00C280D10D8A499EFAAF09BEFB8
:10553000AAF0BDEFAAF00EC008F00FC009F010C02D
:105540000AF011C00BF0090ED890083609360A3659
:105550000B36E82EA4EFAAF0085009100A100B1021
:10556000D8B4B5EFAAF0B8EFAAF0010EB9EFAAF0DF
:10557000000E046E056AC1EFAAF0000E056E040E5F
:10558000046E12000001E72BD151D8A4CAEFAAF093
:10559000CCEFAAF0DEEFAAF0540EBA6F010EBB6F8B
:1055A000600EBC6FFF0EBD6FCCC0BEF0CDC0BFF0B3
:1055B000CEC0C0F0CFC0C1F0A1ECAEF00001D1056B
:1055C000D8A4E5EFAAF0E7EFAAF0F9EFAAF0540E9D
:1055D000BA6F010EBB6F530EBC6FFF0EBD6FCCC018
:1055E000BEF0CDC0BFF0CEC0C0F0CFC0C1F0A1ECC6
:1055F000AEF00001E7A3FFEFAAF001EFABF01BEF65
:10560000ABF0D251D8B407EFABF009EFABF01BEF22
:10561000ABF0D051D15DD8B010EFABF012EFABF0E2
:1056200013EFABF0D02B550ED025D96EDA6A010EF0
:10563000DA22200EDF6E000E83ECAFF0150E576EEF
:10564000C60EE82EFED7572EFCD700D0540E056E9E
:10565000010E066E83ECB0F0680E576EE40EE82E75
:10566000FED7572EFCD700D0120006500710D8B432
:105670003CEFABF03EEFABF047EFABF0065007105E
:10568000D8A445EFABF047EFABF04CEFABF00450D4
:10569000F1ECB0F099EFABF020EE04F00650D92613
:1056A0000750DA22DE50DE10D8B459EFABF05BEFD2
:1056B000ABF076EFABF020EE04F00650D9260750A1
:1056C000DA2210EE02F00650E1260750E222DE5008
:1056D000E65CE650800A0C6EDE50800A0C58D8B0AA
:1056E00074EFABF076EFABF099EFABF020EE02F099
:1056F0000650D9260750DA22DECF08F0DDCF09F0B8
:1057000006C0D9FF07C0DAFFDECF0AF0DDCF0BF00D
:1057100008500A24D96E09500B20DA6E04C0DFFF4E
:1057200020EE02F00650D9260750DA22DE2A000EBB
:10573000DD221200000E096E07BEA3EFABF0A1EF51
:10574000ABF0A9EFABF0066C071ED8B0072A010E2C
:10575000096E05BEB0EFABF0AEEFABF0B6EFABF05D
:10576000046C051ED8B0052A010E091A000E0B6E36
:10577000000E0A6E06500710D8B4C1EFABF0C3EFAD
:10578000ABF0EBEFABF0010E086ECBEFABF0D890C7
:1057900006360736082A07AED0EFABF0D2EFABF0F3
:1057A000C7EFABF0D8900A360B360650045C0750B2
:1057B0000558D8A0DEEFABF0E0EFABF0E5EFABF0D3
:1057C0000650045E0750055A0A80D8900732063208
:1057D000082ED2EFABF00950D8B4F1EFABF0F3EFF5
:1057E000ABF0F7EFABF00A6C0B1ED8B00B2A0AC077
:1057F00004F00BC005F012005AA001EFACF003EF6B
:10580000ACF00DEFACF016C00DF017C00EF014C0E8
:105810000FF015C010F061ECAFF019BE12EFACF054
:1058200014EFACF01AEFACF018C01DF019C01EF068
:105830001EEFACF0000E1E6E000E1D6E000E1C6EF4
:10584000000E1B6E30EFACF0000E056E200E046EE5
:1058500014C006F015C007F035ECABF01B4A1C2A4B
:105860001D501B5C1C50800A1A6E1E50800A1A586C
:10587000D8A03DEFACF03FEFACF024EFACF05AB065
:1058800044EFACF046EFACF050EFACF016C00DF0CA
:1058900017C00EF014C00FF015C010F061ECAFF09F
:1058A00016C004F017C005F0F3ECAEF01D50042450
:1058B000146E1E500520156E1200000E096E05BEF6
:1058C00066EFACF064EFACF06CEFACF0046C051E6E
:1058D000D8B0052A010E096E07BE73EFACF071EF68
:1058E000ACF077EFACF0066C071ED8B0072A065074
:1058F0000710D8B47EEFACF080EFACF0A4EFACF0C2
:10590000010E086E88EFACF0D89006360736082AEC
:1059100007AE8DEFACF08FEFACF084EFACF006503B
:10592000045C07500558D8A098EFACF09AEFACF0A3
