:100000006DC07AC079C078C077C0EEC0DFC074C060
:1000100069C172C071C070C06FC06EC000000C00BA
:1000200004023CAABBAA99EE71930002001400419D
:1000300000FF00AA0040008800100044FF440C04A8
:1000400077883F088C88B390FB880F00FF88BF88B3
:10005000002200420094308800490728F70ACF8820
:100060003F2AF3003F22F380C380FB08CC88332271
:100070007C00C094F000CC05CC11FF00C788FF10B5
:10008000C798BB880322FC00C044CC500055BC88F4
:10009000334412220011212200503000000170A0D0
:1000A000E0A060801C2860C002AAA1A2C0A000201D
:1000B00060220036C00048A840A060A0C18281A292
:1000C0004080A1A0E08060204040485000551C0ABC
:1000D00020C012A20022212A00CC000011241FBE41
:1000E000CFEDCDBF20E0A0E6B0E001C01D92A13968
:1000F000B207E1F710D17EC183CF282F392F80FFBF
:1001000003C080E490E002C080E090E021FD9160B7
:1001100022FD886023FD946024FD926025FD906897
:1001200026FD906127FD806230FD826031FD846094
:1001300032FD806833FD806134FD986035FD90624A
:1001400036FD906437FD81600895282F392F90E1A6
:1001500037FD02C0AB9801C0AB9AA89A220F331F9B
:10016000A8989150A9F708950F931F93CF93DF9309
:10017000062F172FC42FD52FE8DF802F912FE5DF13
:100180008C2F9D2FE2DF8DE08A95F1F70000A99A70
:100190008DE08A95F1F70000A998DF91CF911F912A
:1001A0000F910895AD9AAC9A959A969A811102C0D2
:1001B000AD980895813011F4AC980895823011F40F
:1001C00095980895833009F4969808951F920F9298
:1001D0000FB60F9211248F938CED82BF8F910F90E9
:1001E0000FBE0F901F9018951F920F920FB60F928F
:1001F00011242F933F934F935F936F937F938F932C
:100200009F93AF93BF93EF93FF9385E0CBDF8091F4
:10021000600081110FC040917D0050917E0060917F
:1002200081007091820080918D0090918E009CDF02
:1002300080E0B8DF80916000813079F440917F00E8
:1002400050918000609183007091840080918F00B4
:100250009091900089DF81E0A5DF8091600082307D
:1002600079F44091790050917A0060918500709105
:1002700086008091890090918A0076DF82E092DF8B
:1002800080916000833079F440917B0050917C0034
:10029000609187007091880080918B0090918C0014
:1002A00063DF83E07FDF809160008F5F843019F02F
:1002B0008093600002C01092600080ED9FEF9DBDB2
:1002C0008CBDFF91EF91BF91AF919F918F917F91E5
:1002D0006F915F914F913F912F910F900FBE0F90B3
:1002E0001F9018951F920F920FB60F9211248F93A3
:1002F0008CB18CB98F910F900FBE0F901F901895F5
:100300005D9BFECF8CB908958BB1881F8827881F0D
:1003100008958CB1089587B38FEF87BB94B384BBE6
:1003200091B381BB88E18AB913B889E189B9AA98E8
:1003300086EE99EF9DBD8CBD1FBC83E08EBD12BEC5
:1003400085E083BF82E889BF7894929A939A949AC1
:10035000EDE6F0E08DE2819390E0E937F907D9F717
:10036000A1E6B0E0EDE6F0E081918D9380E0E93721
:10037000F807D1F79DE6E92E90E0F92E2CE6C22E83
:1003800020E0D22E31E9A32E30E0B32EBDDF88234A
:1003900061F08CB1803270F0E1E6F0E091819193F0
:1003A000CE16DF06D9F780936C00C9E7D0E00DE6E2
:1003B00010E00AC0ADE6B0E0E1E6F0E081918D9397
:1003C000EE16FF06D9F7F1CFA02FB12FED910A2F2E
:1003D0001B2FF0E0EE0FFF1FE452F040C895802D78
:1003E0003196C895902D89DE89939993AC16BD06F8
:0803F00059F7CCCFF894FFCFC0
:00000001FF
