:100000000DC01AC019C018C017C025C016C014C032
:1000100034C012C011C010C00FC00EC011241FBECA
:10002000CFEDCDBF20E0A0E6B0E001C01D92AB3720
:10003000B207E1F753D00CC1E3CF1F920F920FB676
:100040000F9211248F938CED82BF8F910F900FBE72
:100050000F901F9018951F920F920FB60F921124B8
:100060008F939F9380ED9FEF9DBD8CBD9F918F914E
:100070000F900FBE0F901F9018951F920F920FB602
:100080000F9211248F938CB18CB98F910F900FBE6A
:100090000F901F9018955D9BFECF8CB908958BB182
:1000A000881F8827881F08958CB1089598E087FFDE
:1000B00002C0AC9A01C0AC982AE12A95F1F700C0C1
:1000C000AB9A2AE12A95F1F700C0AB982AE12A956C
:1000D000F1F700C0880F915051F7089587B39FEF53
:1000E00097BB84B38B6F84BB81B391BB88E18AB922
:1000F00013B883E389B986EE99EF9DBD8CBD1FBC13
:1001000083E08EBD12BE85E083BF82E889BF9298EE
:10011000939A949A9598969AC19A979AC098A99A00
:10012000C1E0BDDF8823C1F08CB180936C00E09109
:100130006100803248F4F0E0E359FF4F1082C09331
:1001400060001092610008C091E09E0F90936100E2
:10015000F0E0E359FF4F808380916000813009F720
:100160001092600080916D00843619F58EE690E063
:1001700032D0B92FA82F972F862F26E0880F991FEE
:10018000AA1FBB1F2A95D1F7809377009093780020
:10019000A0937900B0937A00AD9880E787DF8091D3
:1001A000790084DF8091780081DF809177007EDFA5
:1001B000AD9A80916D00823709F0B3CF80916E00C7
:1001C000803319F4979AC098ACCF813309F0A9CF46
:1001D0009798C09AA6CF1F93E82FF92F99278827C1
:1001E000682F792FE89411911032E9F3193010F04B
:1001F0001E30C8F31B3249F01D3241F4689405C02B
:1002000012D0610F711D811D911D119110531A3073
:10021000B8F33EF490958095709561957F4F8F4F20
:100220009F4F1F910895592F482F372F262F660F64
:10023000771F881F991F660F771F881F991F620FEE
:10024000731F841F951F660F771F881F991F0895BE
:04025000F894FFCF50
:00000001FF
